{
  "contractName": "DerivativeToken",
  "abi": [
    {
      "inputs": [],
      "stateMutability": "nonpayable",
      "type": "constructor"
    },
    {
      "anonymous": false,
      "inputs": [
        {
          "indexed": true,
          "internalType": "address",
          "name": "owner",
          "type": "address"
        },
        {
          "indexed": true,
          "internalType": "address",
          "name": "approved",
          "type": "address"
        },
        {
          "indexed": true,
          "internalType": "uint256",
          "name": "tokenId",
          "type": "uint256"
        }
      ],
      "name": "Approval",
      "type": "event"
    },
    {
      "anonymous": false,
      "inputs": [
        {
          "indexed": true,
          "internalType": "address",
          "name": "owner",
          "type": "address"
        },
        {
          "indexed": true,
          "internalType": "address",
          "name": "operator",
          "type": "address"
        },
        {
          "indexed": false,
          "internalType": "bool",
          "name": "approved",
          "type": "bool"
        }
      ],
      "name": "ApprovalForAll",
      "type": "event"
    },
    {
      "anonymous": false,
      "inputs": [
        {
          "indexed": true,
          "internalType": "address",
          "name": "from",
          "type": "address"
        },
        {
          "indexed": true,
          "internalType": "address",
          "name": "to",
          "type": "address"
        },
        {
          "indexed": true,
          "internalType": "uint256",
          "name": "tokenId",
          "type": "uint256"
        }
      ],
      "name": "Transfer",
      "type": "event"
    },
    {
      "inputs": [
        {
          "internalType": "address",
          "name": "to",
          "type": "address"
        },
        {
          "internalType": "uint256",
          "name": "tokenId",
          "type": "uint256"
        }
      ],
      "name": "approve",
      "outputs": [],
      "stateMutability": "nonpayable",
      "type": "function"
    },
    {
      "inputs": [
        {
          "internalType": "address",
          "name": "owner",
          "type": "address"
        }
      ],
      "name": "balanceOf",
      "outputs": [
        {
          "internalType": "uint256",
          "name": "",
          "type": "uint256"
        }
      ],
      "stateMutability": "view",
      "type": "function"
    },
    {
      "inputs": [
        {
          "internalType": "uint256",
          "name": "tokenId",
          "type": "uint256"
        }
      ],
      "name": "getApproved",
      "outputs": [
        {
          "internalType": "address",
          "name": "",
          "type": "address"
        }
      ],
      "stateMutability": "view",
      "type": "function"
    },
    {
      "inputs": [
        {
          "internalType": "address",
          "name": "owner",
          "type": "address"
        },
        {
          "internalType": "address",
          "name": "operator",
          "type": "address"
        }
      ],
      "name": "isApprovedForAll",
      "outputs": [
        {
          "internalType": "bool",
          "name": "",
          "type": "bool"
        }
      ],
      "stateMutability": "view",
      "type": "function"
    },
    {
      "inputs": [],
      "name": "name",
      "outputs": [
        {
          "internalType": "string",
          "name": "",
          "type": "string"
        }
      ],
      "stateMutability": "view",
      "type": "function"
    },
    {
      "inputs": [
        {
          "internalType": "uint256",
          "name": "tokenId",
          "type": "uint256"
        }
      ],
      "name": "ownerOf",
      "outputs": [
        {
          "internalType": "address",
          "name": "",
          "type": "address"
        }
      ],
      "stateMutability": "view",
      "type": "function"
    },
    {
      "inputs": [
        {
          "internalType": "address",
          "name": "from",
          "type": "address"
        },
        {
          "internalType": "address",
          "name": "to",
          "type": "address"
        },
        {
          "internalType": "uint256",
          "name": "tokenId",
          "type": "uint256"
        }
      ],
      "name": "safeTransferFrom",
      "outputs": [],
      "stateMutability": "nonpayable",
      "type": "function"
    },
    {
      "inputs": [
        {
          "internalType": "address",
          "name": "from",
          "type": "address"
        },
        {
          "internalType": "address",
          "name": "to",
          "type": "address"
        },
        {
          "internalType": "uint256",
          "name": "tokenId",
          "type": "uint256"
        },
        {
          "internalType": "bytes",
          "name": "data",
          "type": "bytes"
        }
      ],
      "name": "safeTransferFrom",
      "outputs": [],
      "stateMutability": "nonpayable",
      "type": "function"
    },
    {
      "inputs": [
        {
          "internalType": "address",
          "name": "operator",
          "type": "address"
        },
        {
          "internalType": "bool",
          "name": "approved",
          "type": "bool"
        }
      ],
      "name": "setApprovalForAll",
      "outputs": [],
      "stateMutability": "nonpayable",
      "type": "function"
    },
    {
      "inputs": [
        {
          "internalType": "bytes4",
          "name": "interfaceId",
          "type": "bytes4"
        }
      ],
      "name": "supportsInterface",
      "outputs": [
        {
          "internalType": "bool",
          "name": "",
          "type": "bool"
        }
      ],
      "stateMutability": "view",
      "type": "function"
    },
    {
      "inputs": [],
      "name": "symbol",
      "outputs": [
        {
          "internalType": "string",
          "name": "",
          "type": "string"
        }
      ],
      "stateMutability": "view",
      "type": "function"
    },
    {
      "inputs": [
        {
          "internalType": "address",
          "name": "from",
          "type": "address"
        },
        {
          "internalType": "address",
          "name": "to",
          "type": "address"
        },
        {
          "internalType": "uint256",
          "name": "tokenId",
          "type": "uint256"
        }
      ],
      "name": "transferFrom",
      "outputs": [],
      "stateMutability": "nonpayable",
      "type": "function"
    },
    {
      "inputs": [
        {
          "internalType": "uint256",
          "name": "",
          "type": "uint256"
        }
      ],
      "name": "works",
      "outputs": [
        {
          "internalType": "uint256",
          "name": "id",
          "type": "uint256"
        },
        {
          "internalType": "string",
          "name": "uri",
          "type": "string"
        }
      ],
      "stateMutability": "view",
      "type": "function"
    },
    {
      "inputs": [
        {
          "internalType": "string",
          "name": "uri",
          "type": "string"
        }
      ],
      "name": "mintDerivative",
      "outputs": [
        {
          "internalType": "uint256",
          "name": "",
          "type": "uint256"
        }
      ],
      "stateMutability": "nonpayable",
      "type": "function"
    },
    {
      "inputs": [
        {
          "internalType": "uint256",
          "name": "newDerivId",
          "type": "uint256"
        }
      ],
      "name": "tokenURI",
      "outputs": [
        {
          "internalType": "string",
          "name": "",
          "type": "string"
        }
      ],
      "stateMutability": "view",
      "type": "function"
    }
  ],
  "bytecode": "0x60806040523480156200001157600080fd5b5060405180602001604052806000815250604051806020016040528060008152508160009081620000439190620002d8565b508060019081620000559190620002d8565b505050620003bf565b600081519050919050565b7f4e487b7100000000000000000000000000000000000000000000000000000000600052604160045260246000fd5b7f4e487b7100000000000000000000000000000000000000000000000000000000600052602260045260246000fd5b60006002820490506001821680620000e057607f821691505b602082108103620000f657620000f562000098565b5b50919050565b60008190508160005260206000209050919050565b60006020601f8301049050919050565b600082821b905092915050565b600060088302620001607fffffffffffffffffffffffffffffffffffffffffffffffffffffffffffffffff8262000121565b6200016c868362000121565b95508019841693508086168417925050509392505050565b6000819050919050565b6000819050919050565b6000620001b9620001b3620001ad8462000184565b6200018e565b62000184565b9050919050565b6000819050919050565b620001d58362000198565b620001ed620001e482620001c0565b8484546200012e565b825550505050565b600090565b62000204620001f5565b62000211818484620001ca565b505050565b5b8181101562000239576200022d600082620001fa565b60018101905062000217565b5050565b601f82111562000288576200025281620000fc565b6200025d8462000111565b810160208510156200026d578190505b620002856200027c8562000111565b83018262000216565b50505b505050565b600082821c905092915050565b6000620002ad600019846008026200028d565b1980831691505092915050565b6000620002c883836200029a565b9150826002028217905092915050565b620002e3826200005e565b67ffffffffffffffff811115620002ff57620002fe62000069565b5b6200030b8254620000c7565b620003188282856200023d565b600060209050601f8311600181146200035057600084156200033b578287015190505b620003478582620002ba565b865550620003b7565b601f1984166200036086620000fc565b60005b828110156200038a5784890151825560018201915060208501945060208101905062000363565b86831015620003aa5784890151620003a6601f8916826200029a565b8355505b6001600288020188555050505b505050505050565b61294a80620003cf6000396000f3fe608060405234801561001057600080fd5b50600436106100f55760003560e01c806370a0823111610097578063b88d4fde11610066578063b88d4fde14610296578063c66e1dd5146102b2578063c87b56dd146102e3578063e985e9c514610313576100f5565b806370a08231146101fc578063771756581461022c57806395d89b411461025c578063a22cb4651461027a576100f5565b8063095ea7b3116100d3578063095ea7b31461017857806323b872dd1461019457806342842e0e146101b05780636352211e146101cc576100f5565b806301ffc9a7146100fa57806306fdde031461012a578063081812fc14610148575b600080fd5b610114600480360381019061010f9190611757565b610343565b604051610121919061179f565b60405180910390f35b610132610425565b60405161013f9190611853565b60405180910390f35b610162600480360381019061015d91906118ab565b6104b7565b60405161016f9190611919565b60405180910390f35b610192600480360381019061018d9190611960565b6104fd565b005b6101ae60048036038101906101a991906119a0565b610614565b005b6101ca60048036038101906101c591906119a0565b610674565b005b6101e660048036038101906101e191906118ab565b610694565b6040516101f39190611919565b60405180910390f35b610216600480360381019061021191906119f3565b610745565b6040516102239190611a2f565b60405180910390f35b61024660048036038101906102419190611b7f565b6107fc565b6040516102539190611a2f565b60405180910390f35b6102646108e2565b6040516102719190611853565b60405180910390f35b610294600480360381019061028f9190611bf4565b610974565b005b6102b060048036038101906102ab9190611cd5565b61098a565b005b6102cc60048036038101906102c791906118ab565b6109ec565b6040516102da929190611d58565b60405180910390f35b6102fd60048036038101906102f891906118ab565b610a98565b60405161030a9190611853565b60405180910390f35b61032d60048036038101906103289190611d88565b610b88565b60405161033a919061179f565b60405180910390f35b60007f80ac58cd000000000000000000000000000000000000000000000000000000007bffffffffffffffffffffffffffffffffffffffffffffffffffffffff1916827bffffffffffffffffffffffffffffffffffffffffffffffffffffffff1916148061040e57507f5b5e139f000000000000000000000000000000000000000000000000000000007bffffffffffffffffffffffffffffffffffffffffffffffffffffffff1916827bffffffffffffffffffffffffffffffffffffffffffffffffffffffff1916145b8061041e575061041d82610c1c565b5b9050919050565b60606000805461043490611df7565b80601f016020809104026020016040519081016040528092919081815260200182805461046090611df7565b80156104ad5780601f10610482576101008083540402835291602001916104ad565b820191906000526020600020905b81548152906001019060200180831161049057829003601f168201915b5050505050905090565b60006104c282610c86565b6004600083815260200190815260200160002060009054906101000a900473ffffffffffffffffffffffffffffffffffffffff169050919050565b600061050882610694565b90508073ffffffffffffffffffffffffffffffffffffffff168373ffffffffffffffffffffffffffffffffffffffff1603610578576040517f08c379a000000000000000000000000000000000000000000000000000000000815260040161056f90611e9a565b60405180910390fd5b8073ffffffffffffffffffffffffffffffffffffffff16610597610cd1565b73ffffffffffffffffffffffffffffffffffffffff1614806105c657506105c5816105c0610cd1565b610b88565b5b610605576040517f08c379a00000000000000000000000000000000000000000000000000000000081526004016105fc90611f2c565b60405180910390fd5b61060f8383610cd9565b505050565b61062561061f610cd1565b82610d92565b610664576040517f08c379a000000000000000000000000000000000000000000000000000000000815260040161065b90611fbe565b60405180910390fd5b61066f838383610e27565b505050565b61068f8383836040518060200160405280600081525061098a565b505050565b6000806002600084815260200190815260200160002060009054906101000a900473ffffffffffffffffffffffffffffffffffffffff169050600073ffffffffffffffffffffffffffffffffffffffff168173ffffffffffffffffffffffffffffffffffffffff160361073c576040517f08c379a00000000000000000000000000000000000000000000000000000000081526004016107339061202a565b60405180910390fd5b80915050919050565b60008073ffffffffffffffffffffffffffffffffffffffff168273ffffffffffffffffffffffffffffffffffffffff16036107b5576040517f08c379a00000000000000000000000000000000000000000000000000000000081526004016107ac906120bc565b60405180910390fd5b600360008373ffffffffffffffffffffffffffffffffffffffff1673ffffffffffffffffffffffffffffffffffffffff168152602001908152602001600020549050919050565b60008073ffffffffffffffffffffffffffffffffffffffff163373ffffffffffffffffffffffffffffffffffffffff160361086c576040517f08c379a00000000000000000000000000000000000000000000000000000000081526004016108639061214e565b60405180910390fd5b610876600661108d565b600061088260066110a3565b905061088e33826110b1565b604051806040016040528082815260200184815250600960008381526020019081526020016000206000820151816000015560208201518160010190816108d5919061231a565b5090505080915050919050565b6060600180546108f190611df7565b80601f016020809104026020016040519081016040528092919081815260200182805461091d90611df7565b801561096a5780601f1061093f5761010080835404028352916020019161096a565b820191906000526020600020905b81548152906001019060200180831161094d57829003601f168201915b5050505050905090565b61098661097f610cd1565b83836110cf565b5050565b61099b610995610cd1565b83610d92565b6109da576040517f08c379a00000000000000000000000000000000000000000000000000000000081526004016109d190611fbe565b60405180910390fd5b6109e68484848461123b565b50505050565b6009602052806000526040600020600091509050806000015490806001018054610a1590611df7565b80601f0160208091040260200160405190810160405280929190818152602001828054610a4190611df7565b8015610a8e5780601f10610a6357610100808354040283529160200191610a8e565b820191906000526020600020905b815481529060010190602001808311610a7157829003601f168201915b5050505050905082565b6060610aa382611297565b610ae2576040517f08c379a0000000000000000000000000000000000000000000000000000000008152600401610ad99061245e565b60405180910390fd5b600960008381526020019081526020016000206001018054610b0390611df7565b80601f0160208091040260200160405190810160405280929190818152602001828054610b2f90611df7565b8015610b7c5780601f10610b5157610100808354040283529160200191610b7c565b820191906000526020600020905b815481529060010190602001808311610b5f57829003601f168201915b50505050509050919050565b6000600560008473ffffffffffffffffffffffffffffffffffffffff1673ffffffffffffffffffffffffffffffffffffffff16815260200190815260200160002060008373ffffffffffffffffffffffffffffffffffffffff1673ffffffffffffffffffffffffffffffffffffffff16815260200190815260200160002060009054906101000a900460ff16905092915050565b60007f01ffc9a7000000000000000000000000000000000000000000000000000000007bffffffffffffffffffffffffffffffffffffffffffffffffffffffff1916827bffffffffffffffffffffffffffffffffffffffffffffffffffffffff1916149050919050565b610c8f81611297565b610cce576040517f08c379a0000000000000000000000000000000000000000000000000000000008152600401610cc59061202a565b60405180910390fd5b50565b600033905090565b816004600083815260200190815260200160002060006101000a81548173ffffffffffffffffffffffffffffffffffffffff021916908373ffffffffffffffffffffffffffffffffffffffff160217905550808273ffffffffffffffffffffffffffffffffffffffff16610d4c83610694565b73ffffffffffffffffffffffffffffffffffffffff167f8c5be1e5ebec7d5bd14f71427d1e84f3dd0314c0f7b2291e5b200ac8c7c3b92560405160405180910390a45050565b600080610d9e83610694565b90508073ffffffffffffffffffffffffffffffffffffffff168473ffffffffffffffffffffffffffffffffffffffff161480610de05750610ddf8185610b88565b5b80610e1e57508373ffffffffffffffffffffffffffffffffffffffff16610e06846104b7565b73ffffffffffffffffffffffffffffffffffffffff16145b91505092915050565b8273ffffffffffffffffffffffffffffffffffffffff16610e4782610694565b73ffffffffffffffffffffffffffffffffffffffff1614610e9d576040517f08c379a0000000000000000000000000000000000000000000000000000000008152600401610e94906124f0565b60405180910390fd5b600073ffffffffffffffffffffffffffffffffffffffff168273ffffffffffffffffffffffffffffffffffffffff1603610f0c576040517f08c379a0000000000000000000000000000000000000000000000000000000008152600401610f0390612582565b60405180910390fd5b610f17838383611303565b610f22600082610cd9565b6001600360008573ffffffffffffffffffffffffffffffffffffffff1673ffffffffffffffffffffffffffffffffffffffff1681526020019081526020016000206000828254610f7291906125d1565b925050819055506001600360008473ffffffffffffffffffffffffffffffffffffffff1673ffffffffffffffffffffffffffffffffffffffff1681526020019081526020016000206000828254610fc99190612605565b92505081905550816002600083815260200190815260200160002060006101000a81548173ffffffffffffffffffffffffffffffffffffffff021916908373ffffffffffffffffffffffffffffffffffffffff160217905550808273ffffffffffffffffffffffffffffffffffffffff168473ffffffffffffffffffffffffffffffffffffffff167fddf252ad1be2c89b69c2b068fc378daa952ba7f163c4a11628f55a4df523b3ef60405160405180910390a4611088838383611308565b505050565b6001816000016000828254019250508190555050565b600081600001549050919050565b6110cb82826040518060200160405280600081525061130d565b5050565b8173ffffffffffffffffffffffffffffffffffffffff168373ffffffffffffffffffffffffffffffffffffffff160361113d576040517f08c379a0000000000000000000000000000000000000000000000000000000008152600401611134906126a7565b60405180910390fd5b80600560008573ffffffffffffffffffffffffffffffffffffffff1673ffffffffffffffffffffffffffffffffffffffff16815260200190815260200160002060008473ffffffffffffffffffffffffffffffffffffffff1673ffffffffffffffffffffffffffffffffffffffff16815260200190815260200160002060006101000a81548160ff0219169083151502179055508173ffffffffffffffffffffffffffffffffffffffff168373ffffffffffffffffffffffffffffffffffffffff167f17307eab39ab6107e8899845ad3d59bd9653f200f220920489ca2b5937696c318360405161122e919061179f565b60405180910390a3505050565b611246848484610e27565b61125284848484611368565b611291576040517f08c379a000000000000000000000000000000000000000000000000000000000815260040161128890612739565b60405180910390fd5b50505050565b60008073ffffffffffffffffffffffffffffffffffffffff166002600084815260200190815260200160002060009054906101000a900473ffffffffffffffffffffffffffffffffffffffff1673ffffffffffffffffffffffffffffffffffffffff1614159050919050565b505050565b505050565b61131783836114ef565b6113246000848484611368565b611363576040517f08c379a000000000000000000000000000000000000000000000000000000000815260040161135a90612739565b60405180910390fd5b505050565b60006113898473ffffffffffffffffffffffffffffffffffffffff166116c8565b156114e2578373ffffffffffffffffffffffffffffffffffffffff1663150b7a026113b2610cd1565b8786866040518563ffffffff1660e01b81526004016113d494939291906127ae565b6020604051808303816000875af192505050801561141057506040513d601f19601f8201168201806040525081019061140d919061280f565b60015b611492573d8060008114611440576040519150601f19603f3d011682016040523d82523d6000602084013e611445565b606091505b50600081510361148a576040517f08c379a000000000000000000000000000000000000000000000000000000000815260040161148190612739565b60405180910390fd5b805181602001fd5b63150b7a0260e01b7bffffffffffffffffffffffffffffffffffffffffffffffffffffffff1916817bffffffffffffffffffffffffffffffffffffffffffffffffffffffff1916149150506114e7565b600190505b949350505050565b600073ffffffffffffffffffffffffffffffffffffffff168273ffffffffffffffffffffffffffffffffffffffff160361155e576040517f08c379a000000000000000000000000000000000000000000000000000000000815260040161155590612888565b60405180910390fd5b61156781611297565b156115a7576040517f08c379a000000000000000000000000000000000000000000000000000000000815260040161159e906128f4565b60405180910390fd5b6115b360008383611303565b6001600360008473ffffffffffffffffffffffffffffffffffffffff1673ffffffffffffffffffffffffffffffffffffffff16815260200190815260200160002060008282546116039190612605565b92505081905550816002600083815260200190815260200160002060006101000a81548173ffffffffffffffffffffffffffffffffffffffff021916908373ffffffffffffffffffffffffffffffffffffffff160217905550808273ffffffffffffffffffffffffffffffffffffffff16600073ffffffffffffffffffffffffffffffffffffffff167fddf252ad1be2c89b69c2b068fc378daa952ba7f163c4a11628f55a4df523b3ef60405160405180910390a46116c460008383611308565b5050565b6000808273ffffffffffffffffffffffffffffffffffffffff163b119050919050565b6000604051905090565b600080fd5b600080fd5b60007fffffffff0000000000000000000000000000000000000000000000000000000082169050919050565b611734816116ff565b811461173f57600080fd5b50565b6000813590506117518161172b565b92915050565b60006020828403121561176d5761176c6116f5565b5b600061177b84828501611742565b91505092915050565b60008115159050919050565b61179981611784565b82525050565b60006020820190506117b46000830184611790565b92915050565b600081519050919050565b600082825260208201905092915050565b60005b838110156117f45780820151818401526020810190506117d9565b83811115611803576000848401525b50505050565b6000601f19601f8301169050919050565b6000611825826117ba565b61182f81856117c5565b935061183f8185602086016117d6565b61184881611809565b840191505092915050565b6000602082019050818103600083015261186d818461181a565b905092915050565b6000819050919050565b61188881611875565b811461189357600080fd5b50565b6000813590506118a58161187f565b92915050565b6000602082840312156118c1576118c06116f5565b5b60006118cf84828501611896565b91505092915050565b600073ffffffffffffffffffffffffffffffffffffffff82169050919050565b6000611903826118d8565b9050919050565b611913816118f8565b82525050565b600060208201905061192e600083018461190a565b92915050565b61193d816118f8565b811461194857600080fd5b50565b60008135905061195a81611934565b92915050565b60008060408385031215611977576119766116f5565b5b60006119858582860161194b565b925050602061199685828601611896565b9150509250929050565b6000806000606084860312156119b9576119b86116f5565b5b60006119c78682870161194b565b93505060206119d88682870161194b565b92505060406119e986828701611896565b9150509250925092565b600060208284031215611a0957611a086116f5565b5b6000611a178482850161194b565b91505092915050565b611a2981611875565b82525050565b6000602082019050611a446000830184611a20565b92915050565b600080fd5b600080fd5b7f4e487b7100000000000000000000000000000000000000000000000000000000600052604160045260246000fd5b611a8c82611809565b810181811067ffffffffffffffff82111715611aab57611aaa611a54565b5b80604052505050565b6000611abe6116eb565b9050611aca8282611a83565b919050565b600067ffffffffffffffff821115611aea57611ae9611a54565b5b611af382611809565b9050602081019050919050565b82818337600083830152505050565b6000611b22611b1d84611acf565b611ab4565b905082815260208101848484011115611b3e57611b3d611a4f565b5b611b49848285611b00565b509392505050565b600082601f830112611b6657611b65611a4a565b5b8135611b76848260208601611b0f565b91505092915050565b600060208284031215611b9557611b946116f5565b5b600082013567ffffffffffffffff811115611bb357611bb26116fa565b5b611bbf84828501611b51565b91505092915050565b611bd181611784565b8114611bdc57600080fd5b50565b600081359050611bee81611bc8565b92915050565b60008060408385031215611c0b57611c0a6116f5565b5b6000611c198582860161194b565b9250506020611c2a85828601611bdf565b9150509250929050565b600067ffffffffffffffff821115611c4f57611c4e611a54565b5b611c5882611809565b9050602081019050919050565b6000611c78611c7384611c34565b611ab4565b905082815260208101848484011115611c9457611c93611a4f565b5b611c9f848285611b00565b509392505050565b600082601f830112611cbc57611cbb611a4a565b5b8135611ccc848260208601611c65565b91505092915050565b60008060008060808587031215611cef57611cee6116f5565b5b6000611cfd8782880161194b565b9450506020611d0e8782880161194b565b9350506040611d1f87828801611896565b925050606085013567ffffffffffffffff811115611d4057611d3f6116fa565b5b611d4c87828801611ca7565b91505092959194509250565b6000604082019050611d6d6000830185611a20565b8181036020830152611d7f818461181a565b90509392505050565b60008060408385031215611d9f57611d9e6116f5565b5b6000611dad8582860161194b565b9250506020611dbe8582860161194b565b9150509250929050565b7f4e487b7100000000000000000000000000000000000000000000000000000000600052602260045260246000fd5b60006002820490506001821680611e0f57607f821691505b602082108103611e2257611e21611dc8565b5b50919050565b7f4552433732313a20617070726f76616c20746f2063757272656e74206f776e6560008201527f7200000000000000000000000000000000000000000000000000000000000000602082015250565b6000611e846021836117c5565b9150611e8f82611e28565b604082019050919050565b60006020820190508181036000830152611eb381611e77565b9050919050565b7f4552433732313a20617070726f76652063616c6c6572206973206e6f7420746f60008201527f6b656e206f776e6572206e6f7220617070726f76656420666f7220616c6c0000602082015250565b6000611f16603e836117c5565b9150611f2182611eba565b604082019050919050565b60006020820190508181036000830152611f4581611f09565b9050919050565b7f4552433732313a2063616c6c6572206973206e6f7420746f6b656e206f776e6560008201527f72206e6f7220617070726f766564000000000000000000000000000000000000602082015250565b6000611fa8602e836117c5565b9150611fb382611f4c565b604082019050919050565b60006020820190508181036000830152611fd781611f9b565b9050919050565b7f4552433732313a20696e76616c696420746f6b656e2049440000000000000000600082015250565b60006120146018836117c5565b915061201f82611fde565b602082019050919050565b6000602082019050818103600083015261204381612007565b9050919050565b7f4552433732313a2061646472657373207a65726f206973206e6f74206120766160008201527f6c6964206f776e65720000000000000000000000000000000000000000000000602082015250565b60006120a66029836117c5565b91506120b18261204a565b604082019050919050565b600060208201905081810360008301526120d581612099565b9050919050565b7f62656e6566696369617279206164647265737320646f6573206e6f742065786960008201527f7374000000000000000000000000000000000000000000000000000000000000602082015250565b60006121386022836117c5565b9150612143826120dc565b604082019050919050565b600060208201905081810360008301526121678161212b565b9050919050565b60008190508160005260206000209050919050565b60006020601f8301049050919050565b600082821b905092915050565b6000600883026121d07fffffffffffffffffffffffffffffffffffffffffffffffffffffffffffffffff82612193565b6121da8683612193565b95508019841693508086168417925050509392505050565b6000819050919050565b600061221761221261220d84611875565b6121f2565b611875565b9050919050565b6000819050919050565b612231836121fc565b61224561223d8261221e565b8484546121a0565b825550505050565b600090565b61225a61224d565b612265818484612228565b505050565b5b818110156122895761227e600082612252565b60018101905061226b565b5050565b601f8211156122ce5761229f8161216e565b6122a884612183565b810160208510156122b7578190505b6122cb6122c385612183565b83018261226a565b50505b505050565b600082821c905092915050565b60006122f1600019846008026122d3565b1980831691505092915050565b600061230a83836122e0565b9150826002028217905092915050565b612323826117ba565b67ffffffffffffffff81111561233c5761233b611a54565b5b6123468254611df7565b61235182828561228d565b600060209050601f8311600181146123845760008415612372578287015190505b61237c85826122fe565b8655506123e4565b601f1984166123928661216e565b60005b828110156123ba57848901518255600182019150602085019450602081019050612395565b868310156123d757848901516123d3601f8916826122e0565b8355505b6001600288020188555050505b505050505050565b7f4552433732314d657461646174613a2055524920717565727920666f72206e6f60008201527f6e6578697374656e7420746f6b656e0000000000000000000000000000000000602082015250565b6000612448602f836117c5565b9150612453826123ec565b604082019050919050565b600060208201905081810360008301526124778161243b565b9050919050565b7f4552433732313a207472616e736665722066726f6d20696e636f72726563742060008201527f6f776e6572000000000000000000000000000000000000000000000000000000602082015250565b60006124da6025836117c5565b91506124e58261247e565b604082019050919050565b60006020820190508181036000830152612509816124cd565b9050919050565b7f4552433732313a207472616e7366657220746f20746865207a65726f2061646460008201527f7265737300000000000000000000000000000000000000000000000000000000602082015250565b600061256c6024836117c5565b915061257782612510565b604082019050919050565b6000602082019050818103600083015261259b8161255f565b9050919050565b7f4e487b7100000000000000000000000000000000000000000000000000000000600052601160045260246000fd5b60006125dc82611875565b91506125e783611875565b9250828210156125fa576125f96125a2565b5b828203905092915050565b600061261082611875565b915061261b83611875565b9250827fffffffffffffffffffffffffffffffffffffffffffffffffffffffffffffffff038211156126505761264f6125a2565b5b828201905092915050565b7f4552433732313a20617070726f766520746f2063616c6c657200000000000000600082015250565b60006126916019836117c5565b915061269c8261265b565b602082019050919050565b600060208201905081810360008301526126c081612684565b9050919050565b7f4552433732313a207472616e7366657220746f206e6f6e20455243373231526560008201527f63656976657220696d706c656d656e7465720000000000000000000000000000602082015250565b60006127236032836117c5565b915061272e826126c7565b604082019050919050565b6000602082019050818103600083015261275281612716565b9050919050565b600081519050919050565b600082825260208201905092915050565b600061278082612759565b61278a8185612764565b935061279a8185602086016117d6565b6127a381611809565b840191505092915050565b60006080820190506127c3600083018761190a565b6127d0602083018661190a565b6127dd6040830185611a20565b81810360608301526127ef8184612775565b905095945050505050565b6000815190506128098161172b565b92915050565b600060208284031215612825576128246116f5565b5b6000612833848285016127fa565b91505092915050565b7f4552433732313a206d696e7420746f20746865207a65726f2061646472657373600082015250565b60006128726020836117c5565b915061287d8261283c565b602082019050919050565b600060208201905081810360008301526128a181612865565b9050919050565b7f4552433732313a20746f6b656e20616c7265616479206d696e74656400000000600082015250565b60006128de601c836117c5565b91506128e9826128a8565b602082019050919050565b6000602082019050818103600083015261290d816128d1565b905091905056fea2646970667358221220dd351a4a4ff343c3b9bb356d7897884b517ac675fe0512c1cd99c0357f2ed34964736f6c634300080f0033",
  "immutableReferences": {},
  "source": "pragma solidity ^0.8.0;\n\nimport \"../node_modules/@openzeppelin/contracts/token/ERC721/ERC721.sol\";\nimport \"../node_modules/@openzeppelin/contracts/utils/Address.sol\";\nimport \"../node_modules/@openzeppelin/contracts/utils/Counters.sol\";\n\n\ncontract DerivativeToken is ERC721 {\n    using Counters for Counters.Counter;\n    Counters.Counter private _tokenIds;\n \n   //@TODO: add name and symbol \n   constructor () ERC721(\"\",\"\"){}\n\n   /**\n    * Defines an nft for a derivative of OSS \n    */\n    struct Derivative {\n\n        // unique ID for given card \n        uint256 id;\n\n        // universal resource identifier for use in frontend\n        string uri;\n    }\n    \n    mapping(address => uint256) ownerTokenCount;\n    mapping(uint256 => address) tokenOwner;\n    mapping(uint256 => Derivative) public works;\n\n    /**\n     * Mints a new derivative work with a given uri\n     */\n    function mintDerivative(string memory uri) \n        public\n    returns(uint256) {\n        require(msg.sender != address(0), \"beneficiary address does not exist\");\n        _tokenIds.increment();\n        uint256 newDerivId = _tokenIds.current();\n        _safeMint(msg.sender, newDerivId);\n\n        works[newDerivId] = Derivative(newDerivId, uri);\n\n        return newDerivId;\n    }\n\n    function tokenURI(uint256 newDerivId) public view override returns (string memory) {\n        require(_exists(newDerivId), \"ERC721Metadata: URI query for nonexistent token\");\n\n        return works[newDerivId].uri;\n    }\n} \n",
  "sourcePath": "/Users/eerinahaque/Projects/ethsf-pasta-science.github.io/contracts/derivative.sol",
  "compiler": {
    "name": "solc",
    "version": "0.8.15+commit.e14f2714.Emscripten.clang"
  },
  "schemaVersion": "3.4.1",
  "updatedAt": "2022-11-06T07:29:50.367Z",
  "devdoc": {
    "kind": "dev",
    "methods": {
      "approve(address,uint256)": {
        "details": "See {IERC721-approve}."
      },
      "balanceOf(address)": {
        "details": "See {IERC721-balanceOf}."
      },
      "getApproved(uint256)": {
        "details": "See {IERC721-getApproved}."
      },
      "isApprovedForAll(address,address)": {
        "details": "See {IERC721-isApprovedForAll}."
      },
      "name()": {
        "details": "See {IERC721Metadata-name}."
      },
      "ownerOf(uint256)": {
        "details": "See {IERC721-ownerOf}."
      },
      "safeTransferFrom(address,address,uint256)": {
        "details": "See {IERC721-safeTransferFrom}."
      },
      "safeTransferFrom(address,address,uint256,bytes)": {
        "details": "See {IERC721-safeTransferFrom}."
      },
      "setApprovalForAll(address,bool)": {
        "details": "See {IERC721-setApprovalForAll}."
      },
      "supportsInterface(bytes4)": {
        "details": "See {IERC165-supportsInterface}."
      },
      "symbol()": {
        "details": "See {IERC721Metadata-symbol}."
      },
      "transferFrom(address,address,uint256)": {
        "details": "See {IERC721-transferFrom}."
      }
    },
    "version": 1
  },
  "userdoc": {
    "kind": "user",
    "methods": {
      "mintDerivative(string)": {
        "notice": "Mints a new derivative work with a given uri"
      }
    },
    "version": 1
  }
}