{
  "contractName": "Market",
  "abi": [
    {
      "anonymous": false,
      "inputs": [
        {
          "indexed": true,
          "internalType": "address",
          "name": "previousOwner",
          "type": "address"
        },
        {
          "indexed": true,
          "internalType": "address",
          "name": "newOwner",
          "type": "address"
        }
      ],
      "name": "OwnershipTransferred",
      "type": "event"
    },
    {
      "anonymous": false,
      "inputs": [
        {
          "indexed": false,
          "internalType": "uint256",
          "name": "id",
          "type": "uint256"
        },
        {
          "indexed": false,
          "internalType": "uint256",
          "name": "tokenId",
          "type": "uint256"
        },
        {
          "indexed": false,
          "internalType": "uint256",
          "name": "askingPrice",
          "type": "uint256"
        }
      ],
      "name": "cardAdded",
      "type": "event"
    },
    {
      "anonymous": false,
      "inputs": [
        {
          "indexed": false,
          "internalType": "uint256",
          "name": "id",
          "type": "uint256"
        },
        {
          "indexed": false,
          "internalType": "address",
          "name": "owner",
          "type": "address"
        },
        {
          "indexed": false,
          "internalType": "uint256",
          "name": "amount",
          "type": "uint256"
        }
      ],
      "name": "cardDeposit",
      "type": "event"
    },
    {
      "anonymous": false,
      "inputs": [
        {
          "indexed": false,
          "internalType": "uint256",
          "name": "id",
          "type": "uint256"
        },
        {
          "indexed": false,
          "internalType": "address",
          "name": "owner",
          "type": "address"
        },
        {
          "indexed": false,
          "internalType": "uint256",
          "name": "askingPrice",
          "type": "uint256"
        }
      ],
      "name": "cardForeclosed",
      "type": "event"
    },
    {
      "anonymous": false,
      "inputs": [
        {
          "indexed": false,
          "internalType": "uint256",
          "name": "id",
          "type": "uint256"
        },
        {
          "indexed": false,
          "internalType": "address",
          "name": "buyer",
          "type": "address"
        },
        {
          "indexed": false,
          "internalType": "uint256",
          "name": "askingPrice",
          "type": "uint256"
        }
      ],
      "name": "cardSold",
      "type": "event"
    },
    {
      "anonymous": false,
      "inputs": [
        {
          "indexed": false,
          "internalType": "uint256",
          "name": "id",
          "type": "uint256"
        },
        {
          "indexed": false,
          "internalType": "address",
          "name": "owner",
          "type": "address"
        },
        {
          "indexed": false,
          "internalType": "uint256",
          "name": "askingPrice",
          "type": "uint256"
        }
      ],
      "name": "cardUpdatePrice",
      "type": "event"
    },
    {
      "inputs": [
        {
          "internalType": "bytes32",
          "name": "_ticker",
          "type": "bytes32"
        },
        {
          "internalType": "address",
          "name": "_tokenAddress",
          "type": "address"
        }
      ],
      "name": "addToken",
      "outputs": [],
      "stateMutability": "nonpayable",
      "type": "function"
    },
    {
      "inputs": [
        {
          "internalType": "uint256",
          "name": "",
          "type": "uint256"
        }
      ],
      "name": "adminList",
      "outputs": [
        {
          "internalType": "address",
          "name": "",
          "type": "address"
        }
      ],
      "stateMutability": "view",
      "type": "function"
    },
    {
      "inputs": [
        {
          "internalType": "address",
          "name": "",
          "type": "address"
        },
        {
          "internalType": "bytes32",
          "name": "",
          "type": "bytes32"
        }
      ],
      "name": "balances",
      "outputs": [
        {
          "internalType": "uint256",
          "name": "",
          "type": "uint256"
        }
      ],
      "stateMutability": "view",
      "type": "function"
    },
    {
      "inputs": [
        {
          "internalType": "address",
          "name": "",
          "type": "address"
        }
      ],
      "name": "benefactorFunds",
      "outputs": [
        {
          "internalType": "uint256",
          "name": "",
          "type": "uint256"
        }
      ],
      "stateMutability": "view",
      "type": "function"
    },
    {
      "inputs": [
        {
          "internalType": "uint256",
          "name": "",
          "type": "uint256"
        }
      ],
      "name": "benefactors",
      "outputs": [
        {
          "internalType": "address",
          "name": "",
          "type": "address"
        }
      ],
      "stateMutability": "view",
      "type": "function"
    },
    {
      "inputs": [
        {
          "internalType": "address",
          "name": "",
          "type": "address"
        },
        {
          "internalType": "uint256",
          "name": "",
          "type": "uint256"
        }
      ],
      "name": "deposit",
      "outputs": [
        {
          "internalType": "uint256",
          "name": "",
          "type": "uint256"
        }
      ],
      "stateMutability": "view",
      "type": "function"
    },
    {
      "inputs": [
        {
          "internalType": "uint256",
          "name": "_amount",
          "type": "uint256"
        },
        {
          "internalType": "bytes32",
          "name": "_ticker",
          "type": "bytes32"
        }
      ],
      "name": "deposit",
      "outputs": [],
      "stateMutability": "nonpayable",
      "type": "function"
    },
    {
      "inputs": [],
      "name": "depositETH",
      "outputs": [],
      "stateMutability": "payable",
      "type": "function"
    },
    {
      "inputs": [
        {
          "internalType": "uint256",
          "name": "",
          "type": "uint256"
        }
      ],
      "name": "derivList",
      "outputs": [
        {
          "internalType": "uint256",
          "name": "id",
          "type": "uint256"
        },
        {
          "internalType": "address",
          "name": "tokenAddress",
          "type": "address"
        },
        {
          "internalType": "uint256",
          "name": "tokenId",
          "type": "uint256"
        },
        {
          "internalType": "address payable",
          "name": "owner",
          "type": "address"
        },
        {
          "internalType": "uint256",
          "name": "askingPrice",
          "type": "uint256"
        },
        {
          "internalType": "address payable",
          "name": "beneficiary",
          "type": "address"
        },
        {
          "internalType": "uint256",
          "name": "fee",
          "type": "uint256"
        },
        {
          "internalType": "bool",
          "name": "isProprietary",
          "type": "bool"
        }
      ],
      "stateMutability": "view",
      "type": "function"
    },
    {
      "inputs": [],
      "name": "owner",
      "outputs": [
        {
          "internalType": "address",
          "name": "",
          "type": "address"
        }
      ],
      "stateMutability": "view",
      "type": "function"
    },
    {
      "inputs": [],
      "name": "renounceOwnership",
      "outputs": [],
      "stateMutability": "nonpayable",
      "type": "function"
    },
    {
      "inputs": [
        {
          "internalType": "uint256",
          "name": "",
          "type": "uint256"
        }
      ],
      "name": "tokenList",
      "outputs": [
        {
          "internalType": "bytes32",
          "name": "",
          "type": "bytes32"
        }
      ],
      "stateMutability": "view",
      "type": "function"
    },
    {
      "inputs": [
        {
          "internalType": "bytes32",
          "name": "",
          "type": "bytes32"
        }
      ],
      "name": "tokenMapping",
      "outputs": [
        {
          "internalType": "bytes32",
          "name": "ticker",
          "type": "bytes32"
        },
        {
          "internalType": "address",
          "name": "tokenAddress",
          "type": "address"
        }
      ],
      "stateMutability": "view",
      "type": "function"
    },
    {
      "inputs": [
        {
          "internalType": "address",
          "name": "",
          "type": "address"
        },
        {
          "internalType": "uint256",
          "name": "",
          "type": "uint256"
        }
      ],
      "name": "totalOwedTokenCost",
      "outputs": [
        {
          "internalType": "uint256",
          "name": "",
          "type": "uint256"
        }
      ],
      "stateMutability": "view",
      "type": "function"
    },
    {
      "inputs": [
        {
          "internalType": "address",
          "name": "newOwner",
          "type": "address"
        }
      ],
      "name": "transferOwnership",
      "outputs": [],
      "stateMutability": "nonpayable",
      "type": "function"
    },
    {
      "inputs": [
        {
          "internalType": "uint256",
          "name": "_amount",
          "type": "uint256"
        },
        {
          "internalType": "bytes32",
          "name": "_ticker",
          "type": "bytes32"
        }
      ],
      "name": "withdraw",
      "outputs": [],
      "stateMutability": "nonpayable",
      "type": "function"
    },
    {
      "inputs": [
        {
          "internalType": "uint256",
          "name": "amount",
          "type": "uint256"
        }
      ],
      "name": "withdrawEth",
      "outputs": [],
      "stateMutability": "nonpayable",
      "type": "function"
    },
    {
      "inputs": [
        {
          "internalType": "address",
          "name": "tokenAddress",
          "type": "address"
        },
        {
          "internalType": "uint256",
          "name": "tokenId",
          "type": "uint256"
        },
        {
          "internalType": "uint256",
          "name": "askingPrice",
          "type": "uint256"
        },
        {
          "internalType": "address payable",
          "name": "beneficiary",
          "type": "address"
        },
        {
          "internalType": "uint256",
          "name": "fee",
          "type": "uint256"
        }
      ],
      "name": "addDerivToMarket",
      "outputs": [
        {
          "internalType": "uint256",
          "name": "",
          "type": "uint256"
        }
      ],
      "stateMutability": "nonpayable",
      "type": "function"
    },
    {
      "inputs": [
        {
          "internalType": "uint256",
          "name": "id",
          "type": "uint256"
        },
        {
          "internalType": "uint256",
          "name": "newAssessedPrice",
          "type": "uint256"
        }
      ],
      "name": "forceOSS",
      "outputs": [],
      "stateMutability": "payable",
      "type": "function"
    },
    {
      "inputs": [
        {
          "internalType": "uint256",
          "name": "id",
          "type": "uint256"
        },
        {
          "internalType": "uint256",
          "name": "newAssessedPrice",
          "type": "uint256"
        }
      ],
      "name": "makeProprietary",
      "outputs": [],
      "stateMutability": "payable",
      "type": "function"
    },
    {
      "inputs": [
        {
          "internalType": "uint256",
          "name": "id",
          "type": "uint256"
        }
      ],
      "name": "depositFunds",
      "outputs": [
        {
          "internalType": "uint256",
          "name": "",
          "type": "uint256"
        }
      ],
      "stateMutability": "payable",
      "type": "function"
    },
    {
      "inputs": [],
      "name": "updateTotalOwedCost",
      "outputs": [],
      "stateMutability": "nonpayable",
      "type": "function"
    },
    {
      "inputs": [
        {
          "internalType": "uint256",
          "name": "id",
          "type": "uint256"
        }
      ],
      "name": "forecloseDerivative",
      "outputs": [],
      "stateMutability": "nonpayable",
      "type": "function"
    },
    {
      "inputs": [
        {
          "internalType": "uint256",
          "name": "id",
          "type": "uint256"
        }
      ],
      "name": "changeToOpenSource",
      "outputs": [],
      "stateMutability": "nonpayable",
      "type": "function"
    },
    {
      "inputs": [
        {
          "internalType": "uint256",
          "name": "id",
          "type": "uint256"
        },
        {
          "internalType": "uint256",
          "name": "newAssessedPrice",
          "type": "uint256"
        }
      ],
      "name": "changeToProprietary",
      "outputs": [],
      "stateMutability": "payable",
      "type": "function"
    }
  ],
  "bytecode": "0x60806040523480156200001157600080fd5b5062000032620000266200003860201b60201c565b6200004060201b60201c565b62000104565b600033905090565b60008060009054906101000a900473ffffffffffffffffffffffffffffffffffffffff169050816000806101000a81548173ffffffffffffffffffffffffffffffffffffffff021916908373ffffffffffffffffffffffffffffffffffffffff1602179055508173ffffffffffffffffffffffffffffffffffffffff168173ffffffffffffffffffffffffffffffffffffffff167f8be0079c531659141344cd1fd0a4f28419497f9722a3daafe3b4186f6b6457e060405160405180910390a35050565b614dab80620001146000396000f3fe6080604052600436106101665760003560e01c80639776aacf116100d1578063c255dd001161008a578063cf36c16811610064578063cf36c1681461054d578063d4f0b35514610564578063f2fde38b146105a8578063f6326fb3146105d157610166565b8063c255dd00146104be578063c311d049146104fb578063c9630cb01461052457610166565b80639776aacf146103ba5780639b3337ab146103e35780639ead7222146103ff5780639f0389501461043c578063a8d2021a14610458578063a99a42591461048157610166565b806347e7ef241161012357806347e7ef24146102b8578063667cb4ba146102f55780636c3bb38814610333578063715018a61461035c5780638da5cb5b1461037357806394ee7f501461039e57610166565b806311117fc81461016b578063128ee161146101a85780631f14df69146101e5578063280a30ac146102225780633b76594d1461024b5780633fe4cc141461027b575b600080fd5b34801561017757600080fd5b50610192600480360381019061018d9190613cb0565b6105db565b60405161019f9190613d1e565b60405180910390f35b3480156101b457600080fd5b506101cf60048036038101906101ca9190613cb0565b61061a565b6040516101dc9190613d1e565b60405180910390f35b3480156101f157600080fd5b5061020c60048036038101906102079190613d9b565b61064d565b6040516102199190613dea565b60405180910390f35b34801561022e57600080fd5b5061024960048036038101906102449190613cb0565b610672565b005b61026560048036038101906102609190613cb0565b610c78565b6040516102729190613dea565b60405180910390f35b34801561028757600080fd5b506102a2600480360381019061029d9190613e43565b61110b565b6040516102af9190613dea565b60405180910390f35b3480156102c457600080fd5b506102df60048036038101906102da9190613ebe565b611582565b6040516102ec9190613dea565b60405180910390f35b34801561030157600080fd5b5061031c60048036038101906103179190613efe565b6115a7565b60405161032a929190613f3a565b60405180910390f35b34801561033f57600080fd5b5061035a60048036038101906103559190613cb0565b6115eb565b005b34801561036857600080fd5b50610371611987565b005b34801561037f57600080fd5b5061038861199b565b6040516103959190613d1e565b60405180910390f35b6103b860048036038101906103b39190613f63565b6119c4565b005b3480156103c657600080fd5b506103e160048036038101906103dc9190613fa3565b611f8a565b005b6103fd60048036038101906103f89190613f63565b612051565b005b34801561040b57600080fd5b5061042660048036038101906104219190613cb0565b612750565b6040516104339190613fe3565b60405180910390f35b61045660048036038101906104519190613f63565b612774565b005b34801561046457600080fd5b5061047f600480360381019061047a9190613ffe565b612cf6565b005b34801561048d57600080fd5b506104a860048036038101906104a39190613ebe565b613061565b6040516104b59190613dea565b60405180910390f35b3480156104ca57600080fd5b506104e560048036038101906104e0919061403e565b613086565b6040516104f29190613dea565b60405180910390f35b34801561050757600080fd5b50610522600480360381019061051d9190613cb0565b61309e565b005b34801561053057600080fd5b5061054b60048036038101906105469190613ffe565b613292565b005b34801561055957600080fd5b5061056261356c565b005b34801561057057600080fd5b5061058b60048036038101906105869190613cb0565b613755565b60405161059f989796959493929190614095565b60405180910390f35b3480156105b457600080fd5b506105cf60048036038101906105ca919061403e565b61381a565b005b6105d961389d565b005b600481815481106105eb57600080fd5b906000526020600020016000915054906101000a900473ffffffffffffffffffffffffffffffffffffffff1681565b600a6020528060005260406000206000915054906101000a900473ffffffffffffffffffffffffffffffffffffffff1681565b6003602052816000526040600020602052806000526040600020600091509150505481565b33600560003373ffffffffffffffffffffffffffffffffffffffff1673ffffffffffffffffffffffffffffffffffffffff16815260200190815260200160002060009054906101000a900460ff166106ff576040517f08c379a00000000000000000000000000000000000000000000000000000000081526004016106f690614196565b60405180910390fd5b816006805490508110801561073857508060068281548110610724576107236141b6565b5b906000526020600020906008020160000154145b610777576040517f08c379a000000000000000000000000000000000000000000000000000000000815260040161076e90614231565b60405180910390fd5b826006818154811061078c5761078b6141b6565b5b906000526020600020906008020160070160009054906101000a900460ff166107ea576040517f08c379a00000000000000000000000000000000000000000000000000000000081526004016107e19061429d565b60405180910390fd5b600060068581548110610800576107ff6141b6565b5b906000526020600020906008020160030160009054906101000a900473ffffffffffffffffffffffffffffffffffffffff1690506000600760008373ffffffffffffffffffffffffffffffffffffffff1673ffffffffffffffffffffffffffffffffffffffff16815260200190815260200160002060008781526020019081526020016000205414806109325750600960008273ffffffffffffffffffffffffffffffffffffffff1673ffffffffffffffffffffffffffffffffffffffff168152602001908152602001600020600086815260200190815260200160002054600760008373ffffffffffffffffffffffffffffffffffffffff1673ffffffffffffffffffffffffffffffffffffffff168152602001908152602001600020600087815260200190815260200160002054105b610971576040517f08c379a000000000000000000000000000000000000000000000000000000000815260040161096890614355565b60405180910390fd5b60068581548110610985576109846141b6565b5b906000526020600020906008020160010160009054906101000a900473ffffffffffffffffffffffffffffffffffffffff1673ffffffffffffffffffffffffffffffffffffffff166342842e0e600687815481106109e6576109e56141b6565b5b906000526020600020906008020160030160009054906101000a900473ffffffffffffffffffffffffffffffffffffffff1660068881548110610a2c57610a2b6141b6565b5b906000526020600020906008020160050160009054906101000a900473ffffffffffffffffffffffffffffffffffffffff1660068981548110610a7257610a716141b6565b5b9060005260206000209060080201600201546040518463ffffffff1660e01b8152600401610aa2939291906143d4565b600060405180830381600087803b158015610abc57600080fd5b505af1158015610ad0573d6000803e3d6000fd5b50505050600060068681548110610aea57610ae96141b6565b5b906000526020600020906008020160070160006101000a81548160ff02191690831515021790555060068581548110610b2657610b256141b6565b5b906000526020600020906008020160050160009054906101000a900473ffffffffffffffffffffffffffffffffffffffff1660068681548110610b6c57610b6b6141b6565b5b906000526020600020906008020160030160006101000a81548173ffffffffffffffffffffffffffffffffffffffff021916908373ffffffffffffffffffffffffffffffffffffffff1602179055506000600960003373ffffffffffffffffffffffffffffffffffffffff1673ffffffffffffffffffffffffffffffffffffffff1681526020019081526020016000206000878152602001908152602001600020819055507f102f922ecde40cc5423830c0cce62d574ef783d010a7ae352553f5b85598629d858260068881548110610c4857610c476141b6565b5b906000526020600020906008020160040154604051610c699392919061440b565b60405180910390a15050505050565b60008160068054905081108015610cb357508060068281548110610c9f57610c9e6141b6565b5b906000526020600020906008020160000154145b610cf2576040517f08c379a0000000000000000000000000000000000000000000000000000000008152600401610ce990614231565b60405180910390fd5b8260068181548110610d0757610d066141b6565b5b906000526020600020906008020160070160009054906101000a900460ff16610d65576040517f08c379a0000000000000000000000000000000000000000000000000000000008152600401610d5c9061429d565b60405180910390fd5b833373ffffffffffffffffffffffffffffffffffffffff1660068281548110610d9157610d906141b6565b5b906000526020600020906008020160030160009054906101000a900473ffffffffffffffffffffffffffffffffffffffff1673ffffffffffffffffffffffffffffffffffffffff1614610e19576040517f08c379a0000000000000000000000000000000000000000000000000000000008152600401610e10906144b4565b60405180910390fd5b60003411610e5c576040517f08c379a0000000000000000000000000000000000000000000000000000000008152600401610e5390614546565b60405180910390fd5b60068581548110610e7057610e6f6141b6565b5b906000526020600020906008020160050160009054906101000a900473ffffffffffffffffffffffffffffffffffffffff1673ffffffffffffffffffffffffffffffffffffffff163373ffffffffffffffffffffffffffffffffffffffff1603610f0f576040517f08c379a0000000000000000000000000000000000000000000000000000000008152600401610f06906145d8565b60405180910390fd5b610f1761356c565b6000600960003373ffffffffffffffffffffffffffffffffffffffff1673ffffffffffffffffffffffffffffffffffffffff168152602001908152602001600020600087815260200190815260200160002054905060068681548110610f8057610f7f6141b6565b5b906000526020600020906008020160050160009054906101000a900473ffffffffffffffffffffffffffffffffffffffff1673ffffffffffffffffffffffffffffffffffffffff166108fc829081150290604051600060405180830381858888f19350505050158015610ff7573d6000803e3d6000fd5b5061105b81600960003373ffffffffffffffffffffffffffffffffffffffff1673ffffffffffffffffffffffffffffffffffffffff16815260200190815260200160002060008981526020019081526020016000205461399690919063ffffffff16565b600960003373ffffffffffffffffffffffffffffffffffffffff1673ffffffffffffffffffffffffffffffffffffffff168152602001908152602001600020600088815260200190815260200160002081905550600960003373ffffffffffffffffffffffffffffffffffffffff1673ffffffffffffffffffffffffffffffffffffffff168152602001908152602001600020600087815260200190815260200160002054945050505050919050565b6000858560008290503373ffffffffffffffffffffffffffffffffffffffff168173ffffffffffffffffffffffffffffffffffffffff16636352211e846040518263ffffffff1660e01b81526004016111649190613dea565b602060405180830381865afa158015611181573d6000803e3d6000fd5b505050506040513d601f19601f820116820180604052508101906111a5919061460d565b73ffffffffffffffffffffffffffffffffffffffff16146111fb576040517f08c379a00000000000000000000000000000000000000000000000000000000081526004016111f2906146d2565b60405180910390fd5b888860008290503073ffffffffffffffffffffffffffffffffffffffff168173ffffffffffffffffffffffffffffffffffffffff1663081812fc846040518263ffffffff1660e01b81526004016112529190613dea565b602060405180830381865afa15801561126f573d6000803e3d6000fd5b505050506040513d601f19601f82011682018060405250810190611293919061460d565b73ffffffffffffffffffffffffffffffffffffffff16146112e9576040517f08c379a00000000000000000000000000000000000000000000000000000000081526004016112e090614764565b60405180910390fd5b6000881161132c576040517f08c379a0000000000000000000000000000000000000000000000000000000008152600401611323906147f6565b60405180910390fd5b6000600680549050905060066040518061010001604052808381526020018f73ffffffffffffffffffffffffffffffffffffffff1681526020018e81526020013373ffffffffffffffffffffffffffffffffffffffff1681526020018d81526020018c73ffffffffffffffffffffffffffffffffffffffff1681526020018b81526020016000151581525090806001815401808255809150506001900390600052602060002090600802016000909190919091506000820151816000015560208201518160010160006101000a81548173ffffffffffffffffffffffffffffffffffffffff021916908373ffffffffffffffffffffffffffffffffffffffff1602179055506040820151816002015560608201518160030160006101000a81548173ffffffffffffffffffffffffffffffffffffffff021916908373ffffffffffffffffffffffffffffffffffffffff1602179055506080820151816004015560a08201518160050160006101000a81548173ffffffffffffffffffffffffffffffffffffffff021916908373ffffffffffffffffffffffffffffffffffffffff16021790555060c0820151816006015560e08201518160070160006101000a81548160ff02191690831515021790555050508060068281548110611514576115136141b6565b5b9060005260206000209060080201600001541461153457611533614816565b5b7ff1e65573b2901a01c1ff3af4ad8e587294a7f98c4e1db7336886d7192cf90cb7818d8d60405161156793929190614845565b60405180910390a18097505050505050505095945050505050565b6007602052816000526040600020602052806000526040600020600091509150505481565b60026020528060005260406000206000915090508060000154908060010160009054906101000a900473ffffffffffffffffffffffffffffffffffffffff16905082565b8060068054905081108015611624575080600682815481106116105761160f6141b6565b5b906000526020600020906008020160000154145b611663576040517f08c379a000000000000000000000000000000000000000000000000000000000815260040161165a90614231565b60405180910390fd5b8160068181548110611678576116776141b6565b5b906000526020600020906008020160070160009054906101000a900460ff166116d6576040517f08c379a00000000000000000000000000000000000000000000000000000000081526004016116cd9061429d565b60405180910390fd5b823373ffffffffffffffffffffffffffffffffffffffff1660068281548110611702576117016141b6565b5b906000526020600020906008020160030160009054906101000a900473ffffffffffffffffffffffffffffffffffffffff1673ffffffffffffffffffffffffffffffffffffffff161461178a576040517f08c379a0000000000000000000000000000000000000000000000000000000008152600401611781906144b4565b60405180910390fd5b6006848154811061179e5761179d6141b6565b5b906000526020600020906008020160010160009054906101000a900473ffffffffffffffffffffffffffffffffffffffff1673ffffffffffffffffffffffffffffffffffffffff166342842e0e600686815481106117ff576117fe6141b6565b5b906000526020600020906008020160030160009054906101000a900473ffffffffffffffffffffffffffffffffffffffff1660068781548110611845576118446141b6565b5b906000526020600020906008020160050160009054906101000a900473ffffffffffffffffffffffffffffffffffffffff166006888154811061188b5761188a6141b6565b5b9060005260206000209060080201600201546040518463ffffffff1660e01b81526004016118bb939291906143d4565b600060405180830381600087803b1580156118d557600080fd5b505af11580156118e9573d6000803e3d6000fd5b50505050600060068581548110611903576119026141b6565b5b906000526020600020906008020160070160006101000a81548160ff0219169083151502179055506000600960003373ffffffffffffffffffffffffffffffffffffffff1673ffffffffffffffffffffffffffffffffffffffff16815260200190815260200160002060008681526020019081526020016000208190555050505050565b61198f6139ac565b6119996000613a2a565b565b60008060009054906101000a900473ffffffffffffffffffffffffffffffffffffffff16905090565b81600680549050811080156119fd575080600682815481106119e9576119e86141b6565b5b906000526020600020906008020160000154145b611a3c576040517f08c379a0000000000000000000000000000000000000000000000000000000008152600401611a3390614231565b60405180910390fd5b8260068181548110611a5157611a506141b6565b5b906000526020600020906008020160070160009054906101000a900460ff16611aaf576040517f08c379a0000000000000000000000000000000000000000000000000000000008152600401611aa69061429d565b60405180910390fd5b60068481548110611ac357611ac26141b6565b5b906000526020600020906008020160010160009054906101000a900473ffffffffffffffffffffffffffffffffffffffff1660068581548110611b0957611b086141b6565b5b90600052602060002090600802016002015460008290503073ffffffffffffffffffffffffffffffffffffffff168173ffffffffffffffffffffffffffffffffffffffff1663081812fc846040518263ffffffff1660e01b8152600401611b709190613dea565b602060405180830381865afa158015611b8d573d6000803e3d6000fd5b505050506040513d601f19601f82011682018060405250810190611bb1919061460d565b73ffffffffffffffffffffffffffffffffffffffff1614611c07576040517f08c379a0000000000000000000000000000000000000000000000000000000008152600401611bfe90614764565b60405180910390fd5b60068781548110611c1b57611c1a6141b6565b5b906000526020600020906008020160040154341015611c3957600080fd5b60068781548110611c4d57611c4c6141b6565b5b906000526020600020906008020160030160009054906101000a900473ffffffffffffffffffffffffffffffffffffffff1673ffffffffffffffffffffffffffffffffffffffff163373ffffffffffffffffffffffffffffffffffffffff1603611cb657600080fd5b8560068881548110611ccb57611cca6141b6565b5b9060005260206000209060080201600401819055507fa6db04949667408a93e3ab0161a22dbf0c04f811aec3030dc89b13e831cdac0c873388604051611d139392919061440b565b60405180910390a160068781548110611d2f57611d2e6141b6565b5b906000526020600020906008020160010160009054906101000a900473ffffffffffffffffffffffffffffffffffffffff1673ffffffffffffffffffffffffffffffffffffffff166342842e0e60068981548110611d9057611d8f6141b6565b5b906000526020600020906008020160030160009054906101000a900473ffffffffffffffffffffffffffffffffffffffff163360068b81548110611dd757611dd66141b6565b5b9060005260206000209060080201600201546040518463ffffffff1660e01b8152600401611e079392919061487c565b600060405180830381600087803b158015611e2157600080fd5b505af1158015611e35573d6000803e3d6000fd5b5050505060068781548110611e4d57611e4c6141b6565b5b906000526020600020906008020160030160009054906101000a900473ffffffffffffffffffffffffffffffffffffffff1673ffffffffffffffffffffffffffffffffffffffff166108fc349081150290604051600060405180830381858888f19350505050158015611ec4573d6000803e3d6000fd5b507f9bd7b7cd5c817d7eb8d88e9d2a58a131156aece6c6aa7cebccd467b826aecd7d873334604051611ef89392919061440b565b60405180910390a13373ffffffffffffffffffffffffffffffffffffffff1660068881548110611f2b57611f2a6141b6565b5b906000526020600020906008020160030160009054906101000a900473ffffffffffffffffffffffffffffffffffffffff1673ffffffffffffffffffffffffffffffffffffffff1614611f8157611f80614816565b5b50505050505050565b611f926139ac565b60405180604001604052808381526020018273ffffffffffffffffffffffffffffffffffffffff16815250600260008481526020019081526020016000206000820151816000015560208201518160010160006101000a81548173ffffffffffffffffffffffffffffffffffffffff021916908373ffffffffffffffffffffffffffffffffffffffff16021790555090505060018290806001815401808255809150506001900390600052602060002001600090919091909150555050565b816006805490508110801561208a57508060068281548110612076576120756141b6565b5b906000526020600020906008020160000154145b6120c9576040517f08c379a00000000000000000000000000000000000000000000000000000000081526004016120c090614231565b60405180910390fd5b82600681815481106120de576120dd6141b6565b5b906000526020600020906008020160070160009054906101000a900460ff161561213d576040517f08c379a0000000000000000000000000000000000000000000000000000000008152600401612134906148ff565b60405180910390fd5b60068481548110612151576121506141b6565b5b906000526020600020906008020160010160009054906101000a900473ffffffffffffffffffffffffffffffffffffffff1660068581548110612197576121966141b6565b5b90600052602060002090600802016002015460008290503073ffffffffffffffffffffffffffffffffffffffff168173ffffffffffffffffffffffffffffffffffffffff1663081812fc846040518263ffffffff1660e01b81526004016121fe9190613dea565b602060405180830381865afa15801561221b573d6000803e3d6000fd5b505050506040513d601f19601f8201168201806040525081019061223f919061460d565b73ffffffffffffffffffffffffffffffffffffffff1614612295576040517f08c379a000000000000000000000000000000000000000000000000000000000815260040161228c90614764565b60405180910390fd5b600687815481106122a9576122a86141b6565b5b9060005260206000209060080201600401543410156122c757600080fd5b600687815481106122db576122da6141b6565b5b906000526020600020906008020160030160009054906101000a900473ffffffffffffffffffffffffffffffffffffffff1673ffffffffffffffffffffffffffffffffffffffff163373ffffffffffffffffffffffffffffffffffffffff160361234457600080fd5b60068781548110612358576123576141b6565b5b906000526020600020906008020160030160009054906101000a900473ffffffffffffffffffffffffffffffffffffffff1673ffffffffffffffffffffffffffffffffffffffff16600a600089815260200190815260200160002060009054906101000a900473ffffffffffffffffffffffffffffffffffffffff1673ffffffffffffffffffffffffffffffffffffffff16146123f457600080fd5b60068781548110612408576124076141b6565b5b906000526020600020906008020160050160009054906101000a900473ffffffffffffffffffffffffffffffffffffffff1673ffffffffffffffffffffffffffffffffffffffff163373ffffffffffffffffffffffffffffffffffffffff160361247157600080fd5b60068781548110612485576124846141b6565b5b906000526020600020906008020160050160009054906101000a900473ffffffffffffffffffffffffffffffffffffffff1673ffffffffffffffffffffffffffffffffffffffff166108fc600689815481106124e4576124e36141b6565b5b9060005260206000209060080201600401549081150290604051600060405180830381858888f19350505050158015612521573d6000803e3d6000fd5b5060068781548110612536576125356141b6565b5b906000526020600020906008020160010160009054906101000a900473ffffffffffffffffffffffffffffffffffffffff1673ffffffffffffffffffffffffffffffffffffffff166342842e0e60068981548110612597576125966141b6565b5b906000526020600020906008020160050160009054906101000a900473ffffffffffffffffffffffffffffffffffffffff163360068b815481106125de576125dd6141b6565b5b9060005260206000209060080201600201546040518463ffffffff1660e01b815260040161260e9392919061487c565b600060405180830381600087803b15801561262857600080fd5b505af115801561263c573d6000803e3d6000fd5b505050503360068881548110612655576126546141b6565b5b906000526020600020906008020160030160006101000a81548173ffffffffffffffffffffffffffffffffffffffff021916908373ffffffffffffffffffffffffffffffffffffffff1602179055506001600688815481106126ba576126b96141b6565b5b906000526020600020906008020160070160006101000a81548160ff02191690831515021790555085600688815481106126f7576126f66141b6565b5b9060005260206000209060080201600401819055507fa6db04949667408a93e3ab0161a22dbf0c04f811aec3030dc89b13e831cdac0c87338860405161273f9392919061440b565b60405180910390a150505050505050565b6001818154811061276057600080fd5b906000526020600020016000915090505481565b81600680549050811080156127ad57508060068281548110612799576127986141b6565b5b906000526020600020906008020160000154145b6127ec576040517f08c379a00000000000000000000000000000000000000000000000000000000081526004016127e390614231565b60405180910390fd5b8260068181548110612801576128006141b6565b5b906000526020600020906008020160070160009054906101000a900460ff1615612860576040517f08c379a0000000000000000000000000000000000000000000000000000000008152600401612857906148ff565b60405180910390fd5b833373ffffffffffffffffffffffffffffffffffffffff166006828154811061288c5761288b6141b6565b5b906000526020600020906008020160030160009054906101000a900473ffffffffffffffffffffffffffffffffffffffff1673ffffffffffffffffffffffffffffffffffffffff1614612914576040517f08c379a000000000000000000000000000000000000000000000000000000000815260040161290b906144b4565b60405180910390fd5b60068581548110612928576129276141b6565b5b90600052602060002090600802016004015434101561294657600080fd5b6006858154811061295a576129596141b6565b5b906000526020600020906008020160050160009054906101000a900473ffffffffffffffffffffffffffffffffffffffff1673ffffffffffffffffffffffffffffffffffffffff163373ffffffffffffffffffffffffffffffffffffffff16036129c357600080fd5b600685815481106129d7576129d66141b6565b5b906000526020600020906008020160040154341115612a7d57612a283460068781548110612a0857612a076141b6565b5b90600052602060002090600802016004015461399690919063ffffffff16565b600760003373ffffffffffffffffffffffffffffffffffffffff1673ffffffffffffffffffffffffffffffffffffffff1681526020019081526020016000206000878152602001908152602001600020819055505b60068581548110612a9157612a906141b6565b5b906000526020600020906008020160050160009054906101000a900473ffffffffffffffffffffffffffffffffffffffff1673ffffffffffffffffffffffffffffffffffffffff166108fc60068781548110612af057612aef6141b6565b5b9060005260206000209060080201600401549081150290604051600060405180830381858888f19350505050158015612b2d573d6000803e3d6000fd5b5060068581548110612b4257612b416141b6565b5b906000526020600020906008020160010160009054906101000a900473ffffffffffffffffffffffffffffffffffffffff1673ffffffffffffffffffffffffffffffffffffffff166342842e0e60068781548110612ba357612ba26141b6565b5b906000526020600020906008020160050160009054906101000a900473ffffffffffffffffffffffffffffffffffffffff163360068981548110612bea57612be96141b6565b5b9060005260206000209060080201600201546040518463ffffffff1660e01b8152600401612c1a9392919061487c565b600060405180830381600087803b158015612c3457600080fd5b505af1158015612c48573d6000803e3d6000fd5b50505050600160068681548110612c6257612c616141b6565b5b906000526020600020906008020160070160006101000a81548160ff0219169083151502179055508360068681548110612c9f57612c9e6141b6565b5b9060005260206000209060080201600401819055507fa6db04949667408a93e3ab0161a22dbf0c04f811aec3030dc89b13e831cdac0c853386604051612ce79392919061440b565b60405180910390a15050505050565b80600073ffffffffffffffffffffffffffffffffffffffff166002600083815260200190815260200160002060010160009054906101000a900473ffffffffffffffffffffffffffffffffffffffff1673ffffffffffffffffffffffffffffffffffffffff1603612d9c576040517f08c379a0000000000000000000000000000000000000000000000000000000008152600401612d939061496b565b60405180910390fd5b82600360003373ffffffffffffffffffffffffffffffffffffffff1673ffffffffffffffffffffffffffffffffffffffff1681526020019081526020016000206000848152602001908152602001600020541015612e2f576040517f08c379a0000000000000000000000000000000000000000000000000000000008152600401612e26906149d7565b60405180910390fd5b6000600360003373ffffffffffffffffffffffffffffffffffffffff1673ffffffffffffffffffffffffffffffffffffffff1681526020019081526020016000206000848152602001908152602001600020549050612ee784600360003373ffffffffffffffffffffffffffffffffffffffff1673ffffffffffffffffffffffffffffffffffffffff16815260200190815260200160002060008681526020019081526020016000205461399690919063ffffffff16565b600360003373ffffffffffffffffffffffffffffffffffffffff1673ffffffffffffffffffffffffffffffffffffffff1681526020019081526020016000206000858152602001908152602001600020819055506002600084815260200190815260200160002060010160009054906101000a900473ffffffffffffffffffffffffffffffffffffffff1673ffffffffffffffffffffffffffffffffffffffff1663a9059cbb33866040518363ffffffff1660e01b8152600401612fac9291906149f7565b6020604051808303816000875af1158015612fcb573d6000803e3d6000fd5b505050506040513d601f19601f82011682018060405250810190612fef9190614a4c565b508381612ffc9190614aa8565b600360003373ffffffffffffffffffffffffffffffffffffffff1673ffffffffffffffffffffffffffffffffffffffff1681526020019081526020016000206000858152602001908152602001600020541461305b5761305a614816565b5b50505050565b6009602052816000526040600020602052806000526040600020600091509150505481565b600b6020528060005260406000206000915090505481565b80600360003373ffffffffffffffffffffffffffffffffffffffff1673ffffffffffffffffffffffffffffffffffffffff16815260200190815260200160002060007f45544800000000000000000000000000000000000000000000000000000000008152602001908152602001600020541015613151576040517f08c379a000000000000000000000000000000000000000000000000000000000815260040161314890614b28565b60405180910390fd5b6131d481600360003373ffffffffffffffffffffffffffffffffffffffff1673ffffffffffffffffffffffffffffffffffffffff16815260200190815260200160002060007f455448000000000000000000000000000000000000000000000000000000000081526020019081526020016000205461399690919063ffffffff16565b600360003373ffffffffffffffffffffffffffffffffffffffff1673ffffffffffffffffffffffffffffffffffffffff16815260200190815260200160002060007f45544800000000000000000000000000000000000000000000000000000000008152602001908152602001600020819055503373ffffffffffffffffffffffffffffffffffffffff166108fc829081150290604051600060405180830381858888f1935050505015801561328e573d6000803e3d6000fd5b5050565b80600073ffffffffffffffffffffffffffffffffffffffff166002600083815260200190815260200160002060010160009054906101000a900473ffffffffffffffffffffffffffffffffffffffff1673ffffffffffffffffffffffffffffffffffffffff1603613338576040517f08c379a000000000000000000000000000000000000000000000000000000000815260040161332f9061496b565b60405180910390fd5b6000600360003373ffffffffffffffffffffffffffffffffffffffff1673ffffffffffffffffffffffffffffffffffffffff16815260200190815260200160002060008481526020019081526020016000205490506002600084815260200190815260200160002060010160009054906101000a900473ffffffffffffffffffffffffffffffffffffffff1673ffffffffffffffffffffffffffffffffffffffff166323b872dd3330876040518463ffffffff1660e01b815260040161340093929190614b48565b6020604051808303816000875af115801561341f573d6000803e3d6000fd5b505050506040513d601f19601f820116820180604052508101906134439190614a4c565b506134a784600360003373ffffffffffffffffffffffffffffffffffffffff1673ffffffffffffffffffffffffffffffffffffffff168152602001908152602001600020600086815260200190815260200160002054613aee90919063ffffffff16565b600360003373ffffffffffffffffffffffffffffffffffffffff1673ffffffffffffffffffffffffffffffffffffffff16815260200190815260200160002060008581526020019081526020016000208190555083816135079190614b7f565b600360003373ffffffffffffffffffffffffffffffffffffffff1673ffffffffffffffffffffffffffffffffffffffff1681526020019081526020016000206000858152602001908152602001600020541461356657613565614816565b5b50505050565b60005b60068054905081101561375257600681815481106135905761358f6141b6565b5b906000526020600020906008020160070160009054906101000a900460ff161561373f576000600682815481106135ca576135c96141b6565b5b906000526020600020906008020160030160009054906101000a900473ffffffffffffffffffffffffffffffffffffffff1690506000613663600860008473ffffffffffffffffffffffffffffffffffffffff1673ffffffffffffffffffffffffffffffffffffffff1681526020019081526020016000206000858152602001908152602001600020544261399690919063ffffffff16565b905060006136828261367486613b04565b613c5790919063ffffffff16565b90506136e781600960008673ffffffffffffffffffffffffffffffffffffffff1673ffffffffffffffffffffffffffffffffffffffff168152602001908152602001600020600087815260200190815260200160002054613aee90919063ffffffff16565b600960008573ffffffffffffffffffffffffffffffffffffffff1673ffffffffffffffffffffffffffffffffffffffff1681526020019081526020016000206000868152602001908152602001600020819055505050505b808061374a90614bd5565b91505061356f565b50565b6006818154811061376557600080fd5b90600052602060002090600802016000915090508060000154908060010160009054906101000a900473ffffffffffffffffffffffffffffffffffffffff16908060020154908060030160009054906101000a900473ffffffffffffffffffffffffffffffffffffffff16908060040154908060050160009054906101000a900473ffffffffffffffffffffffffffffffffffffffff16908060060154908060070160009054906101000a900460ff16905088565b6138226139ac565b600073ffffffffffffffffffffffffffffffffffffffff168173ffffffffffffffffffffffffffffffffffffffff1603613891576040517f08c379a000000000000000000000000000000000000000000000000000000000815260040161388890614c8f565b60405180910390fd5b61389a81613a2a565b50565b61392034600360003373ffffffffffffffffffffffffffffffffffffffff1673ffffffffffffffffffffffffffffffffffffffff16815260200190815260200160002060007f4554480000000000000000000000000000000000000000000000000000000000815260200190815260200160002054613aee90919063ffffffff16565b600360003373ffffffffffffffffffffffffffffffffffffffff1673ffffffffffffffffffffffffffffffffffffffff16815260200190815260200160002060007f4554480000000000000000000000000000000000000000000000000000000000815260200190815260200160002081905550565b600081836139a49190614aa8565b905092915050565b6139b4613c6d565b73ffffffffffffffffffffffffffffffffffffffff166139d261199b565b73ffffffffffffffffffffffffffffffffffffffff1614613a28576040517f08c379a0000000000000000000000000000000000000000000000000000000008152600401613a1f90614cfb565b60405180910390fd5b565b60008060009054906101000a900473ffffffffffffffffffffffffffffffffffffffff169050816000806101000a81548173ffffffffffffffffffffffffffffffffffffffff021916908373ffffffffffffffffffffffffffffffffffffffff1602179055508173ffffffffffffffffffffffffffffffffffffffff168173ffffffffffffffffffffffffffffffffffffffff167f8be0079c531659141344cd1fd0a4f28419497f9722a3daafe3b4186f6b6457e060405160405180910390a35050565b60008183613afc9190614b7f565b905092915050565b60008160068054905081108015613b3f57508060068281548110613b2b57613b2a6141b6565b5b906000526020600020906008020160000154145b613b7e576040517f08c379a0000000000000000000000000000000000000000000000000000000008152600401613b7590614231565b60405180910390fd5b8260068181548110613b9357613b926141b6565b5b906000526020600020906008020160070160009054906101000a900460ff16613bf1576040517f08c379a0000000000000000000000000000000000000000000000000000000008152600401613be89061429d565b60405180910390fd5b613c4e60068581548110613c0857613c076141b6565b5b90600052602060002090600802016004015460068681548110613c2e57613c2d6141b6565b5b906000526020600020906008020160060154613c5790919063ffffffff16565b92505050919050565b60008183613c659190614d1b565b905092915050565b600033905090565b600080fd5b6000819050919050565b613c8d81613c7a565b8114613c9857600080fd5b50565b600081359050613caa81613c84565b92915050565b600060208284031215613cc657613cc5613c75565b5b6000613cd484828501613c9b565b91505092915050565b600073ffffffffffffffffffffffffffffffffffffffff82169050919050565b6000613d0882613cdd565b9050919050565b613d1881613cfd565b82525050565b6000602082019050613d336000830184613d0f565b92915050565b613d4281613cfd565b8114613d4d57600080fd5b50565b600081359050613d5f81613d39565b92915050565b6000819050919050565b613d7881613d65565b8114613d8357600080fd5b50565b600081359050613d9581613d6f565b92915050565b60008060408385031215613db257613db1613c75565b5b6000613dc085828601613d50565b9250506020613dd185828601613d86565b9150509250929050565b613de481613c7a565b82525050565b6000602082019050613dff6000830184613ddb565b92915050565b6000613e1082613cdd565b9050919050565b613e2081613e05565b8114613e2b57600080fd5b50565b600081359050613e3d81613e17565b92915050565b600080600080600060a08688031215613e5f57613e5e613c75565b5b6000613e6d88828901613d50565b9550506020613e7e88828901613c9b565b9450506040613e8f88828901613c9b565b9350506060613ea088828901613e2e565b9250506080613eb188828901613c9b565b9150509295509295909350565b60008060408385031215613ed557613ed4613c75565b5b6000613ee385828601613d50565b9250506020613ef485828601613c9b565b9150509250929050565b600060208284031215613f1457613f13613c75565b5b6000613f2284828501613d86565b91505092915050565b613f3481613d65565b82525050565b6000604082019050613f4f6000830185613f2b565b613f5c6020830184613d0f565b9392505050565b60008060408385031215613f7a57613f79613c75565b5b6000613f8885828601613c9b565b9250506020613f9985828601613c9b565b9150509250929050565b60008060408385031215613fba57613fb9613c75565b5b6000613fc885828601613d86565b9250506020613fd985828601613d50565b9150509250929050565b6000602082019050613ff86000830184613f2b565b92915050565b6000806040838503121561401557614014613c75565b5b600061402385828601613c9b565b925050602061403485828601613d86565b9150509250929050565b60006020828403121561405457614053613c75565b5b600061406284828501613d50565b91505092915050565b61407481613e05565b82525050565b60008115159050919050565b61408f8161407a565b82525050565b6000610100820190506140ab600083018b613ddb565b6140b8602083018a613d0f565b6140c56040830189613ddb565b6140d2606083018861406b565b6140df6080830187613ddb565b6140ec60a083018661406b565b6140f960c0830185613ddb565b61410660e0830184614086565b9998505050505050505050565b600082825260208201905092915050565b7f54686973206f7065726174696f6e2063616e206f6e6c7920626520657865637560008201527f7465642062792061646d696e0000000000000000000000000000000000000000602082015250565b6000614180602c83614113565b915061418b82614124565b604082019050919050565b600060208201905081810360008301526141af81614173565b9050919050565b7f4e487b7100000000000000000000000000000000000000000000000000000000600052603260045260246000fd5b7f436f756c64206e6f742066696e6420636172642e000000000000000000000000600082015250565b600061421b601483614113565b9150614226826141e5565b602082019050919050565b6000602082019050818103600083015261424a8161420e565b9050919050565b7f4465726976617469636520776f726b206973206f70656e2d736f757263652e00600082015250565b6000614287601f83614113565b915061429282614251565b602082019050919050565b600060208201905081810360008301526142b68161427a565b9050919050565b7f4f776e6572207374696c6c2068617320656e6f7567682066756e64732064657060008201527f6f736974656420746f2072657461696e206f776e657273686970206f6620746860208201527f6520636172640000000000000000000000000000000000000000000000000000604082015250565b600061433f604683614113565b915061434a826142bd565b606082019050919050565b6000602082019050818103600083015261436e81614332565b9050919050565b6000819050919050565b600061439a61439561439084613cdd565b614375565b613cdd565b9050919050565b60006143ac8261437f565b9050919050565b60006143be826143a1565b9050919050565b6143ce816143b3565b82525050565b60006060820190506143e960008301866143c5565b6143f660208301856143c5565b6144036040830184613ddb565b949350505050565b60006060820190506144206000830186613ddb565b61442d6020830185613d0f565b61443a6040830184613ddb565b949350505050565b7f54686973206f7065726174696f6e2063616e206f6e6c7920626520657865637560008201527f7465642062792074686520636172642773206f776e6572000000000000000000602082015250565b600061449e603783614113565b91506144a982614442565b604082019050919050565b600060208201905081810360008301526144cd81614491565b9050919050565b7f496e76616c696420616d6f756e74206f662066756e6473206465706f7369746560008201527f642e000000000000000000000000000000000000000000000000000000000000602082015250565b6000614530602283614113565b915061453b826144d4565b604082019050919050565b6000602082019050818103600083015261455f81614523565b9050919050565b7f43616e6e6f74206265207468652062656e6669636961727920616e642074686560008201527f206f776e65720000000000000000000000000000000000000000000000000000602082015250565b60006145c2602683614113565b91506145cd82614566565b604082019050919050565b600060208201905081810360008301526145f1816145b5565b9050919050565b60008151905061460781613d39565b92915050565b60006020828403121561462357614622613c75565b5b6000614631848285016145f8565b91505092915050565b7f54686973206f7065726174696f6e2063616e206f6e6c7920626520657865637560008201527f74656420627920746865206361726427732062656e656669636961727920286d60208201527f696e746572290000000000000000000000000000000000000000000000000000604082015250565b60006146bc604683614113565b91506146c78261463a565b606082019050919050565b600060208201905081810360008301526146eb816146af565b9050919050565b7f436f6e747261637420686173206e6f74206265656e20617070726f766564207460008201527f6f206d616b65207472616e736665727300000000000000000000000000000000602082015250565b600061474e603083614113565b9150614759826146f2565b604082019050919050565b6000602082019050818103600083015261477d81614741565b9050919050565b7f4465726976617469766520776f726b206d75737420686176652061206665652060008201527f7261746500000000000000000000000000000000000000000000000000000000602082015250565b60006147e0602483614113565b91506147eb82614784565b604082019050919050565b6000602082019050818103600083015261480f816147d3565b9050919050565b7f4e487b7100000000000000000000000000000000000000000000000000000000600052600160045260246000fd5b600060608201905061485a6000830186613ddb565b6148676020830185613ddb565b6148746040830184613ddb565b949350505050565b600060608201905061489160008301866143c5565b61489e6020830185613d0f565b6148ab6040830184613ddb565b949350505050565b7f4465726976617469766520776f726b2069732070726f70726965746172792e00600082015250565b60006148e9601f83614113565b91506148f4826148b3565b602082019050919050565b60006020820190508181036000830152614918816148dc565b9050919050565b7f546f6b656e20646f6573206e6f74206578697374000000000000000000000000600082015250565b6000614955601483614113565b91506149608261491f565b602082019050919050565b6000602082019050818103600083015261498481614948565b9050919050565b7f42616c616e6365206973206e6f742073756666696369656e7400000000000000600082015250565b60006149c1601983614113565b91506149cc8261498b565b602082019050919050565b600060208201905081810360008301526149f0816149b4565b9050919050565b6000604082019050614a0c6000830185613d0f565b614a196020830184613ddb565b9392505050565b614a298161407a565b8114614a3457600080fd5b50565b600081519050614a4681614a20565b92915050565b600060208284031215614a6257614a61613c75565b5b6000614a7084828501614a37565b91505092915050565b7f4e487b7100000000000000000000000000000000000000000000000000000000600052601160045260246000fd5b6000614ab382613c7a565b9150614abe83613c7a565b925082821015614ad157614ad0614a79565b5b828203905092915050565b7f496e7375666669656e742062616c616e63650000000000000000000000000000600082015250565b6000614b12601283614113565b9150614b1d82614adc565b602082019050919050565b60006020820190508181036000830152614b4181614b05565b9050919050565b6000606082019050614b5d6000830186613d0f565b614b6a6020830185613d0f565b614b776040830184613ddb565b949350505050565b6000614b8a82613c7a565b9150614b9583613c7a565b9250827fffffffffffffffffffffffffffffffffffffffffffffffffffffffffffffffff03821115614bca57614bc9614a79565b5b828201905092915050565b6000614be082613c7a565b91507fffffffffffffffffffffffffffffffffffffffffffffffffffffffffffffffff8203614c1257614c11614a79565b5b600182019050919050565b7f4f776e61626c653a206e6577206f776e657220697320746865207a65726f206160008201527f6464726573730000000000000000000000000000000000000000000000000000602082015250565b6000614c79602683614113565b9150614c8482614c1d565b604082019050919050565b60006020820190508181036000830152614ca881614c6c565b9050919050565b7f4f776e61626c653a2063616c6c6572206973206e6f7420746865206f776e6572600082015250565b6000614ce5602083614113565b9150614cf082614caf565b602082019050919050565b60006020820190508181036000830152614d1481614cd8565b9050919050565b6000614d2682613c7a565b9150614d3183613c7a565b9250817fffffffffffffffffffffffffffffffffffffffffffffffffffffffffffffffff0483118215151615614d6a57614d69614a79565b5b82820290509291505056fea2646970667358221220b88a08c5b62c0ecd3a8f9247c1f3f7e5a61e0b4d49e9f9699f6e5f26eb3dc62b64736f6c634300080f0033",
  "immutableReferences": {},
  "source": "pragma solidity ^0.8.0;\n\nimport \"../node_modules/@openzeppelin/contracts/token/ERC721/IERC721.sol\";\nimport \"../node_modules/@openzeppelin/contracts/utils/math/SafeMath.sol\";\nimport \"./Wallet.sol\";\n\ncontract Market is Wallet{\n    \n    using SafeMath for uint; \n\n    address[] public adminList;\n    mapping(address => bool) adminMap;\n\n    struct DerivCard {\n        uint id;                   // id associated with listing on the marketplace\n        address tokenAddress;         // address for the OSS's token; for interfacing with the OSS NFT\n        uint tokenId;              // ID for the NFT derivative work token; for O(1) indexing for read and write using mappings and lists\n        address payable owner;        // current owner of the derivative work\n        uint askingPrice;          // current asking price of the derivative work\n        address payable beneficiary;  // OSS community that created the OSS that the derivative work uses\n        uint fee;                  // percentage of fee from the asking price that the owner must pay to hold the derivative work proprietary\n        bool isProprietary;           // if true, the license behaves as copyleft, if false the license behaves as permissive\n    }\n\n    // listing of every open-source derivative work\n    DerivCard[] public derivList;\n\n    // mapping of a user's address to a balance of funds deposited for their proprietary software\n    // total funds remaining in deposit of a patron to hold a token\n    mapping(address => mapping(uint => uint)) public deposit;\n\n    // mapping of a token's id to the the last time a user paid a deposit\n    mapping(address => mapping(uint => uint)) private lastDepositTimestamp;  \n\n    // total funds still owed by owner\n    // mapping of the owner's address to the derivative's cost\n    mapping(address => mapping(uint => uint)) public totalOwedTokenCost;\n    \n\n    // organization receiving tax revenue \n    mapping(uint => address) public benefactors;\n    mapping(address => uint) public benefactorFunds;\n\n    /* EVENTS */\n\n    /// @notice emits an event when a new card is added to the market \n    event cardAdded(uint id, uint tokenId, uint askingPrice);\n\n    /// @notice emits an event when a forced sale occurs\n    event cardSold(uint id, address buyer, uint askingPrice);\n    \n    /// @notice emits an event when a card gets a new self-assessed price\n    event cardUpdatePrice(uint id, address owner, uint askingPrice);\n\n    /// @notice emits an event when the owner defaults on their tax and the card is foreclosed\n    event cardForeclosed(uint id, address owner, uint askingPrice);\n\n    /// @notice emits an event when a deposit is made\n    event cardDeposit(uint id, address owner, uint amount);\n\n    /* MODIFIERS */\n     \n    /**\n     * @notice Requires that only patrons of the card can call a given function\n     */\n     modifier OnlyOwner(uint id) {\n        require(derivList[id].owner == msg.sender, \n            \"This operation can only be executed by the card's owner\");\n         _;\n     }\n    /**\n     * @notice \n     */\n     modifier OnlyAdmin(address admin) {\n         require(adminMap[msg.sender], \"This operation can only be executed by admin\");\n         _;\n     }\n\n    /**\n     * @notice Requires that only the benefactors (minters) of the car can call a given function.\n     */\n    modifier OnlyBenefactor(address tokenAddress, uint tokenId) {\n        IERC721 tokenContract = IERC721(tokenAddress);\n        require(tokenContract.ownerOf(tokenId) == msg.sender, \n            \"This operation can only be executed by the card's beneficiary (minter)\");\n        _;\n    }\n \n    /** \n     * @notice Requires that the specified contract making an external call has been approved to make transfers. \n     */\n    modifier HasTransferApproval(address tokenAddress, uint tokenId) {\n        IERC721 tokenContract = IERC721(tokenAddress);\n        require(tokenContract.getApproved(tokenId) == address(this), \n            \"Contract has not been approved to make transfers\");\n        _;\n    }\n    \n    /**\n     * @notice Requires that the item is listed in the marketplace \n     */\n     modifier CardExists(uint id) {\n         require(id < derivList.length && derivList[id].id == id, \"Could not find card.\");\n         _;\n     }\n\n     modifier IsProprietary(uint id) {\n         require(derivList[id].isProprietary, \"Derivatice work is open-source.\");\n         _;\n     }\n     \n     modifier IsOSS(uint id) {\n         require(!derivList[id].isProprietary, \"Derivative work is proprietary.\");\n         _;\n     }\n\n     /* EXTERNAL FUNCTIONS */\n     /**\n      * @notice Lists a card for auction in the market \n      */\n     function addDerivToMarket(address tokenAddress, uint tokenId, uint askingPrice, address payable beneficiary, uint fee) \n        OnlyBenefactor(tokenAddress, tokenId) \n        HasTransferApproval(tokenAddress, tokenId)\n        external\n        returns(uint)\n        {\n        require(fee > 0, \"Derivative work must have a fee rate\");\n        // @TODO:require that the card isn't for auction yet?\n        uint newCardId = derivList.length;\n        derivList.push(DerivCard(newCardId, tokenAddress, tokenId, payable(msg.sender), askingPrice, beneficiary, fee, false));\n\n        assert(derivList[newCardId].id == newCardId);\n        emit cardAdded(newCardId, tokenId, askingPrice);\n        return newCardId;\n    } \n\n    /**\n     *  Forces a the derivative work to be OSS by buying an already owned derivative work at a higher or equal assessed price.\n     */\n    function forceOSS(uint id, uint newAssessedPrice) \n        payable\n        external\n        CardExists(id) \n        IsProprietary(id) \n        HasTransferApproval(derivList[id].tokenAddress, derivList[id].tokenId) \n    {\n        // require that the buying price is greater than the asking price\n        require(msg.value >= derivList[id].askingPrice);\n\n        // require that the owner isn't trying to buy the work from themselves\n        require(msg.sender != derivList[id].owner);\n        \n        // update work's new price\n        derivList[id].askingPrice = newAssessedPrice;\n        emit cardUpdatePrice(id, msg.sender, newAssessedPrice);\n\n        // interface the nft and safetransfer from owner to buyer\n        IERC721(derivList[id].tokenAddress).safeTransferFrom(derivList[id].owner, msg.sender, derivList[id].tokenId);\n        \n        // transfer funds to owner \n        derivList[id].owner.transfer(msg.value);\n        emit cardSold(id, msg.sender, msg.value);\n        \n        assert(derivList[id].owner == msg.sender);\n    } \n\n    /**\n     *  Allows a derivative work that has not yet been owned to become proprietary under the ownership of the caller. \n     */\n    function makeProprietary(uint id, uint newAssessedPrice) \n        external \n        payable \n        CardExists(id)\n        IsOSS(id) \n        HasTransferApproval(derivList[id].tokenAddress, derivList[id].tokenId) \n    {\n        // require that the bidding price is greater than the asking price\n        require(msg.value >= derivList[id].askingPrice);\n\n        // require that the caller does not already own this derivative work\n        require(msg.sender != derivList[id].owner);\n\n        // require that the benefactor is the current owner of the derivative work\n        require(benefactors[id] == derivList[id].owner);\n\n        // require that the caller is not the benefactor\n        require(msg.sender != derivList[id].beneficiary);\n\n        // // update their deposit if they've paid more money than the asking price\n        // if (msg.value > derivList[id].askingPrice) {\n        //     deposit[msg.sender][id] = derivList[id].askingPrice.sub(msg.value);\n        // }\n\n        // pay the asking price to the beneficiary's address\n        derivList[id].beneficiary.transfer(derivList[id].askingPrice);\n\n        // interface the nft and safetransfer from beneficiary to buyer\n        IERC721(derivList[id].tokenAddress).safeTransferFrom(derivList[id].beneficiary, msg.sender, derivList[id].tokenId);\n\n        // update the ownership of the derivative work and make it proprietary\n        derivList[id].owner = payable(msg.sender); \n        derivList[id].isProprietary = true;\n\n        // update derivatives's new asking price\n        derivList[id].askingPrice = newAssessedPrice;\n        emit cardUpdatePrice(id, msg.sender, newAssessedPrice);\n    }\n\n    /**\n     *  Allows an owner of a proprietary derivative work to deposit funds.\n     */\n    function depositFunds(uint id) \n        external \n        payable \n        CardExists(id) \n        IsProprietary(id) \n        OnlyOwner(id)\n        returns(uint)\n    {\n        require(msg.value > 0, \"Invalid amount of funds deposited.\");\n        require(msg.sender != derivList[id].beneficiary, \"Cannot be the benficiary and the owner\");\n\n        // // calculate the cumulative fees\n        // updateTotalOwedCost();\n        // uint cumFee = totalOwedTokenCost[msg.sender][id];\n\n        // if (msg.value >= cumFee) {\n\n        //     // transfer the fees to the beneficiary\n        //     lastDepositTimestamp[msg.sender][id] = block.timestamp;  \n        //     derivList[id].beneficiary.transfer(cumFee);  \n\n        //     // update the total owed cost \n        //     totalOwedTokenCost[msg.sender][id] = totalOwedTokenCost[msg.sender][id].sub(cumFee);\n\n        //     // add the excess of the value sent to the deposit\n        //     uint excess = msg.value.sub(cumFee);\n        //     deposit[msg.sender][id] = deposit[msg.sender][id].add(excess);\n        // } else {\n\n        //     uint diff = cumFee - msg.value;\n        //     // if there is enough funds in deposit to cover the fee, pay from the fee\n        //     if (deposit[msg.sender][id] >= cumFee) {\n        //         // transfer the difference from the deposit and \n        //         deposit[msg.sender][id] = deposit[msg.sender][id].sub(diff);\n        //         derivList[id].beneficiary.transfer(cumFee);  \n        //         totalOwedTokenCost[msg.sender][id] = totalOwedTokenCost[msg.sender][id].sub(cumFee);\n\n        //     } else {\n        //         derivList[id].beneficiary.transfer(msg.value);  \n        //         totalOwedTokenCost[msg.sender][id] = totalOwedTokenCost[msg.sender][id].add(diff);\n\n        //     }\n        // }\n\n        // calculate the cumulative fees\n        updateTotalOwedCost();\n        uint cumFee = totalOwedTokenCost[msg.sender][id];\n        derivList[id].beneficiary.transfer(cumFee);  \n\n        // update the total owed cost \n        totalOwedTokenCost[msg.sender][id] = totalOwedTokenCost[msg.sender][id].sub(cumFee);\n\n        return totalOwedTokenCost[msg.sender][id];\n    }\n\n    /**\n     *  Updates the total amount that is owed by the owner of a given derivative work after the elapsed time.   \n     */\n    function updateTotalOwedCost() \n        public\n    {\n        for (uint id = 0; id < derivList.length; id++) {\n            if (derivList[id].isProprietary) {\n                address owner = derivList[id].owner;\n                uint elapsedTime = block.timestamp.sub(lastDepositTimestamp[owner][id]);\n                uint cummFee = _calculateFee(id).mul(elapsedTime);\n\n                totalOwedTokenCost[owner][id] = totalOwedTokenCost[owner][id].add(cummFee);\n            }\n        }\n    }\n\n    /**\n     *  Forecloses the derivative by making the work open-source from being proprietary.\n     */\n    function forecloseDerivative(uint id)\n        public \n        OnlyAdmin(msg.sender) \n        CardExists(id) \n        IsProprietary(id) \n   {\n       address owner = derivList[id].owner;\n       require(deposit[owner][id] == 0 || deposit[owner][id] < totalOwedTokenCost[owner][id],\n        \"Owner still has enough funds deposited to retain ownership of the card\");\n\n        // interface the nft and safetransfer from owner to beneficiary\n        IERC721(derivList[id].tokenAddress).safeTransferFrom(derivList[id].owner, derivList[id].beneficiary, derivList[id].tokenId);\n\n        // update the fields of the derivative work\n        derivList[id].isProprietary = false;\n        derivList[id].owner = derivList[id].beneficiary; \n\n        // update the total owed cost such that they no longer owe money to the beneficiary\n        totalOwedTokenCost[msg.sender][id] = 0;\n\n        emit cardForeclosed(id, owner, derivList[id].askingPrice);\n   }\n\n    function changeToOpenSource(uint id) \n        public\n        CardExists(id)\n        IsProprietary(id) \n        OnlyOwner(id)\n    {\n        // interface the nft and safetransfer from owner to beneficiary\n        IERC721(derivList[id].tokenAddress).safeTransferFrom(derivList[id].owner, derivList[id].beneficiary, derivList[id].tokenId);\n\n        // update the derivative work so that it's open-source\n        derivList[id].isProprietary = false;\n\n        // update the total owed cost such that they no longer owe money to the beneficiary\n        totalOwedTokenCost[msg.sender][id] = 0;\n            \n    }\n\n    function changeToProprietary(uint id, uint newAssessedPrice) \n        public\n        payable \n        CardExists(id)\n        IsOSS(id) \n        OnlyOwner(id)\n\n    {\n        // require that the bidding price is greater than the asking price\n        require(msg.value >= derivList[id].askingPrice);\n\n        // require that the caller is not the benefactor\n        require(msg.sender != derivList[id].beneficiary);\n\n        // update their deposit if they've paid more money than the asking price\n        if (msg.value > derivList[id].askingPrice) {\n            deposit[msg.sender][id] = derivList[id].askingPrice.sub(msg.value);\n        }\n\n        // pay the asking price to the beneficiary's address\n        derivList[id].beneficiary.transfer(derivList[id].askingPrice);\n\n        // interface the nft and safetransfer from beneficiary to buyer\n        IERC721(derivList[id].tokenAddress).safeTransferFrom(derivList[id].beneficiary, msg.sender, derivList[id].tokenId);\n\n        // update the derivative work to be proprietary\n        derivList[id].isProprietary = true;\n\n        // update derivatives's new asking price\n        derivList[id].askingPrice = newAssessedPrice;\n        emit cardUpdatePrice(id, msg.sender, newAssessedPrice);\n\n    }\n\n   function _calculateFee(uint id) \n        view \n        internal\n        CardExists(id) \n        IsProprietary(id) \n        returns(uint)\n   {\n       return (derivList[id].fee).mul(derivList[id].askingPrice);\n   }\n}",
  "sourcePath": "/Users/eerinahaque/Projects/ethsf-pasta-science.github.io/contracts/dex.sol",
  "compiler": {
    "name": "solc",
    "version": "0.8.15+commit.e14f2714.Emscripten.clang"
  },
  "schemaVersion": "3.4.1",
  "updatedAt": "2022-11-06T07:29:50.475Z",
  "devdoc": {
    "kind": "dev",
    "methods": {
      "owner()": {
        "details": "Returns the address of the current owner."
      },
      "renounceOwnership()": {
        "details": "Leaves the contract without owner. It will not be possible to call `onlyOwner` functions anymore. Can only be called by the current owner. NOTE: Renouncing ownership will leave the contract without an owner, thereby removing any functionality that is only available to the owner."
      },
      "transferOwnership(address)": {
        "details": "Transfers ownership of the contract to a new account (`newOwner`). Can only be called by the current owner."
      }
    },
    "version": 1
  },
  "userdoc": {
    "events": {
      "cardAdded(uint256,uint256,uint256)": {
        "notice": "emits an event when a new card is added to the market "
      },
      "cardDeposit(uint256,address,uint256)": {
        "notice": "emits an event when a deposit is made"
      },
      "cardForeclosed(uint256,address,uint256)": {
        "notice": "emits an event when the owner defaults on their tax and the card is foreclosed"
      },
      "cardSold(uint256,address,uint256)": {
        "notice": "emits an event when a forced sale occurs"
      },
      "cardUpdatePrice(uint256,address,uint256)": {
        "notice": "emits an event when a card gets a new self-assessed price"
      }
    },
    "kind": "user",
    "methods": {
      "addDerivToMarket(address,uint256,uint256,address,uint256)": {
        "notice": "Lists a card for auction in the market "
      },
      "depositFunds(uint256)": {
        "notice": "Allows an owner of a proprietary derivative work to deposit funds."
      },
      "forceOSS(uint256,uint256)": {
        "notice": "Forces a the derivative work to be OSS by buying an already owned derivative work at a higher or equal assessed price."
      },
      "forecloseDerivative(uint256)": {
        "notice": "Forecloses the derivative by making the work open-source from being proprietary."
      },
      "makeProprietary(uint256,uint256)": {
        "notice": "Allows a derivative work that has not yet been owned to become proprietary under the ownership of the caller. "
      },
      "updateTotalOwedCost()": {
        "notice": "Updates the total amount that is owed by the owner of a given derivative work after the elapsed time.   "
      }
    },
    "version": 1
  }
}