{
  "contractName": "Wallet",
  "abi": [
    {
      "anonymous": false,
      "inputs": [
        {
          "indexed": true,
          "internalType": "address",
          "name": "previousOwner",
          "type": "address"
        },
        {
          "indexed": true,
          "internalType": "address",
          "name": "newOwner",
          "type": "address"
        }
      ],
      "name": "OwnershipTransferred",
      "type": "event"
    },
    {
      "inputs": [
        {
          "internalType": "address",
          "name": "",
          "type": "address"
        },
        {
          "internalType": "bytes32",
          "name": "",
          "type": "bytes32"
        }
      ],
      "name": "balances",
      "outputs": [
        {
          "internalType": "uint256",
          "name": "",
          "type": "uint256"
        }
      ],
      "stateMutability": "view",
      "type": "function"
    },
    {
      "inputs": [],
      "name": "owner",
      "outputs": [
        {
          "internalType": "address",
          "name": "",
          "type": "address"
        }
      ],
      "stateMutability": "view",
      "type": "function"
    },
    {
      "inputs": [],
      "name": "renounceOwnership",
      "outputs": [],
      "stateMutability": "nonpayable",
      "type": "function"
    },
    {
      "inputs": [
        {
          "internalType": "uint256",
          "name": "",
          "type": "uint256"
        }
      ],
      "name": "tokenList",
      "outputs": [
        {
          "internalType": "bytes32",
          "name": "",
          "type": "bytes32"
        }
      ],
      "stateMutability": "view",
      "type": "function"
    },
    {
      "inputs": [
        {
          "internalType": "bytes32",
          "name": "",
          "type": "bytes32"
        }
      ],
      "name": "tokenMapping",
      "outputs": [
        {
          "internalType": "bytes32",
          "name": "ticker",
          "type": "bytes32"
        },
        {
          "internalType": "address",
          "name": "tokenAddress",
          "type": "address"
        }
      ],
      "stateMutability": "view",
      "type": "function"
    },
    {
      "inputs": [
        {
          "internalType": "address",
          "name": "newOwner",
          "type": "address"
        }
      ],
      "name": "transferOwnership",
      "outputs": [],
      "stateMutability": "nonpayable",
      "type": "function"
    },
    {
      "inputs": [
        {
          "internalType": "bytes32",
          "name": "_ticker",
          "type": "bytes32"
        },
        {
          "internalType": "address",
          "name": "_tokenAddress",
          "type": "address"
        }
      ],
      "name": "addToken",
      "outputs": [],
      "stateMutability": "nonpayable",
      "type": "function"
    },
    {
      "inputs": [
        {
          "internalType": "uint256",
          "name": "_amount",
          "type": "uint256"
        },
        {
          "internalType": "bytes32",
          "name": "_ticker",
          "type": "bytes32"
        }
      ],
      "name": "deposit",
      "outputs": [],
      "stateMutability": "nonpayable",
      "type": "function"
    },
    {
      "inputs": [
        {
          "internalType": "uint256",
          "name": "_amount",
          "type": "uint256"
        },
        {
          "internalType": "bytes32",
          "name": "_ticker",
          "type": "bytes32"
        }
      ],
      "name": "withdraw",
      "outputs": [],
      "stateMutability": "nonpayable",
      "type": "function"
    },
    {
      "inputs": [],
      "name": "depositETH",
      "outputs": [],
      "stateMutability": "payable",
      "type": "function"
    },
    {
      "inputs": [
        {
          "internalType": "uint256",
          "name": "amount",
          "type": "uint256"
        }
      ],
      "name": "withdrawEth",
      "outputs": [],
      "stateMutability": "nonpayable",
      "type": "function"
    }
  ],
  "bytecode": "0x608060405234801561001057600080fd5b5061002d61002261003260201b60201c565b61003a60201b60201c565b6100fe565b600033905090565b60008060009054906101000a900473ffffffffffffffffffffffffffffffffffffffff169050816000806101000a81548173ffffffffffffffffffffffffffffffffffffffff021916908373ffffffffffffffffffffffffffffffffffffffff1602179055508173ffffffffffffffffffffffffffffffffffffffff168173ffffffffffffffffffffffffffffffffffffffff167f8be0079c531659141344cd1fd0a4f28419497f9722a3daafe3b4186f6b6457e060405160405180910390a35050565b6116218061010d6000396000f3fe60806040526004361061009c5760003560e01c80639ead7222116100645780639ead722214610187578063a8d2021a146101c4578063c311d049146101ed578063c9630cb014610216578063f2fde38b1461023f578063f6326fb3146102685761009c565b80631f14df69146100a1578063667cb4ba146100de578063715018a61461011c5780638da5cb5b146101335780639776aacf1461015e575b600080fd5b3480156100ad57600080fd5b506100c860048036038101906100c39190610fc7565b610272565b6040516100d59190611020565b60405180910390f35b3480156100ea57600080fd5b506101056004803603810190610100919061103b565b610297565b604051610113929190611086565b60405180910390f35b34801561012857600080fd5b506101316102db565b005b34801561013f57600080fd5b506101486102ef565b60405161015591906110af565b60405180910390f35b34801561016a57600080fd5b50610185600480360381019061018091906110ca565b610318565b005b34801561019357600080fd5b506101ae60048036038101906101a99190611136565b6103df565b6040516101bb9190611163565b60405180910390f35b3480156101d057600080fd5b506101eb60048036038101906101e6919061117e565b610403565b005b3480156101f957600080fd5b50610214600480360381019061020f9190611136565b61076e565b005b34801561022257600080fd5b5061023d6004803603810190610238919061117e565b610962565b005b34801561024b57600080fd5b50610266600480360381019061026191906111be565b610c3c565b005b610270610cbf565b005b6003602052816000526040600020602052806000526040600020600091509150505481565b60026020528060005260406000206000915090508060000154908060010160009054906101000a900473ffffffffffffffffffffffffffffffffffffffff16905082565b6102e3610db8565b6102ed6000610e36565b565b60008060009054906101000a900473ffffffffffffffffffffffffffffffffffffffff16905090565b610320610db8565b60405180604001604052808381526020018273ffffffffffffffffffffffffffffffffffffffff16815250600260008481526020019081526020016000206000820151816000015560208201518160010160006101000a81548173ffffffffffffffffffffffffffffffffffffffff021916908373ffffffffffffffffffffffffffffffffffffffff16021790555090505060018290806001815401808255809150506001900390600052602060002001600090919091909150555050565b600181815481106103ef57600080fd5b906000526020600020016000915090505481565b80600073ffffffffffffffffffffffffffffffffffffffff166002600083815260200190815260200160002060010160009054906101000a900473ffffffffffffffffffffffffffffffffffffffff1673ffffffffffffffffffffffffffffffffffffffff16036104a9576040517f08c379a00000000000000000000000000000000000000000000000000000000081526004016104a090611248565b60405180910390fd5b82600360003373ffffffffffffffffffffffffffffffffffffffff1673ffffffffffffffffffffffffffffffffffffffff168152602001908152602001600020600084815260200190815260200160002054101561053c576040517f08c379a0000000000000000000000000000000000000000000000000000000008152600401610533906112b4565b60405180910390fd5b6000600360003373ffffffffffffffffffffffffffffffffffffffff1673ffffffffffffffffffffffffffffffffffffffff16815260200190815260200160002060008481526020019081526020016000205490506105f484600360003373ffffffffffffffffffffffffffffffffffffffff1673ffffffffffffffffffffffffffffffffffffffff168152602001908152602001600020600086815260200190815260200160002054610efa90919063ffffffff16565b600360003373ffffffffffffffffffffffffffffffffffffffff1673ffffffffffffffffffffffffffffffffffffffff1681526020019081526020016000206000858152602001908152602001600020819055506002600084815260200190815260200160002060010160009054906101000a900473ffffffffffffffffffffffffffffffffffffffff1673ffffffffffffffffffffffffffffffffffffffff1663a9059cbb33866040518363ffffffff1660e01b81526004016106b99291906112d4565b6020604051808303816000875af11580156106d8573d6000803e3d6000fd5b505050506040513d601f19601f820116820180604052508101906106fc9190611335565b5083816107099190611391565b600360003373ffffffffffffffffffffffffffffffffffffffff1673ffffffffffffffffffffffffffffffffffffffff16815260200190815260200160002060008581526020019081526020016000205414610768576107676113c5565b5b50505050565b80600360003373ffffffffffffffffffffffffffffffffffffffff1673ffffffffffffffffffffffffffffffffffffffff16815260200190815260200160002060007f45544800000000000000000000000000000000000000000000000000000000008152602001908152602001600020541015610821576040517f08c379a000000000000000000000000000000000000000000000000000000000815260040161081890611440565b60405180910390fd5b6108a481600360003373ffffffffffffffffffffffffffffffffffffffff1673ffffffffffffffffffffffffffffffffffffffff16815260200190815260200160002060007f4554480000000000000000000000000000000000000000000000000000000000815260200190815260200160002054610efa90919063ffffffff16565b600360003373ffffffffffffffffffffffffffffffffffffffff1673ffffffffffffffffffffffffffffffffffffffff16815260200190815260200160002060007f45544800000000000000000000000000000000000000000000000000000000008152602001908152602001600020819055503373ffffffffffffffffffffffffffffffffffffffff166108fc829081150290604051600060405180830381858888f1935050505015801561095e573d6000803e3d6000fd5b5050565b80600073ffffffffffffffffffffffffffffffffffffffff166002600083815260200190815260200160002060010160009054906101000a900473ffffffffffffffffffffffffffffffffffffffff1673ffffffffffffffffffffffffffffffffffffffff1603610a08576040517f08c379a00000000000000000000000000000000000000000000000000000000081526004016109ff90611248565b60405180910390fd5b6000600360003373ffffffffffffffffffffffffffffffffffffffff1673ffffffffffffffffffffffffffffffffffffffff16815260200190815260200160002060008481526020019081526020016000205490506002600084815260200190815260200160002060010160009054906101000a900473ffffffffffffffffffffffffffffffffffffffff1673ffffffffffffffffffffffffffffffffffffffff166323b872dd3330876040518463ffffffff1660e01b8152600401610ad093929190611460565b6020604051808303816000875af1158015610aef573d6000803e3d6000fd5b505050506040513d601f19601f82011682018060405250810190610b139190611335565b50610b7784600360003373ffffffffffffffffffffffffffffffffffffffff1673ffffffffffffffffffffffffffffffffffffffff168152602001908152602001600020600086815260200190815260200160002054610f1090919063ffffffff16565b600360003373ffffffffffffffffffffffffffffffffffffffff1673ffffffffffffffffffffffffffffffffffffffff1681526020019081526020016000206000858152602001908152602001600020819055508381610bd79190611497565b600360003373ffffffffffffffffffffffffffffffffffffffff1673ffffffffffffffffffffffffffffffffffffffff16815260200190815260200160002060008581526020019081526020016000205414610c3657610c356113c5565b5b50505050565b610c44610db8565b600073ffffffffffffffffffffffffffffffffffffffff168173ffffffffffffffffffffffffffffffffffffffff1603610cb3576040517f08c379a0000000000000000000000000000000000000000000000000000000008152600401610caa9061155f565b60405180910390fd5b610cbc81610e36565b50565b610d4234600360003373ffffffffffffffffffffffffffffffffffffffff1673ffffffffffffffffffffffffffffffffffffffff16815260200190815260200160002060007f4554480000000000000000000000000000000000000000000000000000000000815260200190815260200160002054610f1090919063ffffffff16565b600360003373ffffffffffffffffffffffffffffffffffffffff1673ffffffffffffffffffffffffffffffffffffffff16815260200190815260200160002060007f4554480000000000000000000000000000000000000000000000000000000000815260200190815260200160002081905550565b610dc0610f26565b73ffffffffffffffffffffffffffffffffffffffff16610dde6102ef565b73ffffffffffffffffffffffffffffffffffffffff1614610e34576040517f08c379a0000000000000000000000000000000000000000000000000000000008152600401610e2b906115cb565b60405180910390fd5b565b60008060009054906101000a900473ffffffffffffffffffffffffffffffffffffffff169050816000806101000a81548173ffffffffffffffffffffffffffffffffffffffff021916908373ffffffffffffffffffffffffffffffffffffffff1602179055508173ffffffffffffffffffffffffffffffffffffffff168173ffffffffffffffffffffffffffffffffffffffff167f8be0079c531659141344cd1fd0a4f28419497f9722a3daafe3b4186f6b6457e060405160405180910390a35050565b60008183610f089190611391565b905092915050565b60008183610f1e9190611497565b905092915050565b600033905090565b600080fd5b600073ffffffffffffffffffffffffffffffffffffffff82169050919050565b6000610f5e82610f33565b9050919050565b610f6e81610f53565b8114610f7957600080fd5b50565b600081359050610f8b81610f65565b92915050565b6000819050919050565b610fa481610f91565b8114610faf57600080fd5b50565b600081359050610fc181610f9b565b92915050565b60008060408385031215610fde57610fdd610f2e565b5b6000610fec85828601610f7c565b9250506020610ffd85828601610fb2565b9150509250929050565b6000819050919050565b61101a81611007565b82525050565b60006020820190506110356000830184611011565b92915050565b60006020828403121561105157611050610f2e565b5b600061105f84828501610fb2565b91505092915050565b61107181610f91565b82525050565b61108081610f53565b82525050565b600060408201905061109b6000830185611068565b6110a86020830184611077565b9392505050565b60006020820190506110c46000830184611077565b92915050565b600080604083850312156110e1576110e0610f2e565b5b60006110ef85828601610fb2565b925050602061110085828601610f7c565b9150509250929050565b61111381611007565b811461111e57600080fd5b50565b6000813590506111308161110a565b92915050565b60006020828403121561114c5761114b610f2e565b5b600061115a84828501611121565b91505092915050565b60006020820190506111786000830184611068565b92915050565b6000806040838503121561119557611194610f2e565b5b60006111a385828601611121565b92505060206111b485828601610fb2565b9150509250929050565b6000602082840312156111d4576111d3610f2e565b5b60006111e284828501610f7c565b91505092915050565b600082825260208201905092915050565b7f546f6b656e20646f6573206e6f74206578697374000000000000000000000000600082015250565b60006112326014836111eb565b915061123d826111fc565b602082019050919050565b6000602082019050818103600083015261126181611225565b9050919050565b7f42616c616e6365206973206e6f742073756666696369656e7400000000000000600082015250565b600061129e6019836111eb565b91506112a982611268565b602082019050919050565b600060208201905081810360008301526112cd81611291565b9050919050565b60006040820190506112e96000830185611077565b6112f66020830184611011565b9392505050565b60008115159050919050565b611312816112fd565b811461131d57600080fd5b50565b60008151905061132f81611309565b92915050565b60006020828403121561134b5761134a610f2e565b5b600061135984828501611320565b91505092915050565b7f4e487b7100000000000000000000000000000000000000000000000000000000600052601160045260246000fd5b600061139c82611007565b91506113a783611007565b9250828210156113ba576113b9611362565b5b828203905092915050565b7f4e487b7100000000000000000000000000000000000000000000000000000000600052600160045260246000fd5b7f496e7375666669656e742062616c616e63650000000000000000000000000000600082015250565b600061142a6012836111eb565b9150611435826113f4565b602082019050919050565b600060208201905081810360008301526114598161141d565b9050919050565b60006060820190506114756000830186611077565b6114826020830185611077565b61148f6040830184611011565b949350505050565b60006114a282611007565b91506114ad83611007565b9250827fffffffffffffffffffffffffffffffffffffffffffffffffffffffffffffffff038211156114e2576114e1611362565b5b828201905092915050565b7f4f776e61626c653a206e6577206f776e657220697320746865207a65726f206160008201527f6464726573730000000000000000000000000000000000000000000000000000602082015250565b60006115496026836111eb565b9150611554826114ed565b604082019050919050565b600060208201905081810360008301526115788161153c565b9050919050565b7f4f776e61626c653a2063616c6c6572206973206e6f7420746865206f776e6572600082015250565b60006115b56020836111eb565b91506115c08261157f565b602082019050919050565b600060208201905081810360008301526115e4816115a8565b905091905056fea2646970667358221220b1b914c4a2a92ff8f79a36f1640d8b8cd41bc7a36e5ec27cc6fd5623db87c07164736f6c634300080f0033",
  "immutableReferences": {},
  "source": "pragma solidity ^0.8.0;\n\nimport \"../node_modules/@openzeppelin/contracts/token/ERC20/IERC20.sol\";\nimport \"../node_modules/@openzeppelin/contracts/utils/math/SafeMath.sol\";\nimport \"../node_modules/@openzeppelin/contracts/access/Ownable.sol\";\n\ncontract Wallet is Ownable {\n\n  using SafeMath for uint256;\n\n  struct Token {\n    bytes32 ticker;\n    address tokenAddress;\n  }\n\n  bytes32[] public tokenList;\n  mapping(bytes32 => Token) public tokenMapping;\n\n  mapping(address => mapping(bytes32 => uint256)) public balances; // bytes32 is the token symbol\n\n// modifiers \n  modifier tokenExists(bytes32 _ticker) {\n    require(tokenMapping[_ticker].tokenAddress != address(0), \"Token does not exist\");\n    _;\n  }\n\n// functions \n  function addToken(bytes32 _ticker, address _tokenAddress) onlyOwner external {\n    tokenMapping[_ticker] = Token(_ticker, _tokenAddress);\n    tokenList.push(_ticker);\n  }\n\n  function deposit(uint _amount, bytes32 _ticker) tokenExists(_ticker) external {\n\n    uint256 ogBalance = balances[msg.sender][_ticker];\n    IERC20(tokenMapping[_ticker].tokenAddress).transferFrom(msg.sender, address(this), _amount);\n    balances[msg.sender][_ticker] = balances[msg.sender][_ticker].add(_amount);\n\n    assert(balances[msg.sender][_ticker] == ogBalance + _amount);\n  }\n\n  function withdraw(uint256 _amount, bytes32 _ticker) tokenExists(_ticker) external {\n    require(balances[msg.sender][_ticker] >= _amount, \"Balance is not sufficient\");\n\n    uint256 ogBalance = balances[msg.sender][_ticker];\n    balances[msg.sender][_ticker] = balances[msg.sender][_ticker].sub(_amount);\n    IERC20(tokenMapping[_ticker].tokenAddress).transfer(msg.sender, _amount);\n\n    assert(balances[msg.sender][_ticker] == ogBalance - _amount);\n  }\n\n  function depositETH() payable external {\n     balances[msg.sender][bytes32(\"ETH\")] = balances[msg.sender][bytes32(\"ETH\")].add(msg.value);\n  }\n    \n  function withdrawEth(uint amount) external {\n      require(balances[msg.sender][bytes32(\"ETH\")] >= amount,'Insuffient balance'); \n      balances[msg.sender][bytes32(\"ETH\")] = balances[msg.sender][bytes32(\"ETH\")].sub(amount);\n      payable(msg.sender).transfer(amount);\n  }\n}\n",
  "sourcePath": "/Users/eerinahaque/Projects/ethsf-pasta-science.github.io/contracts/wallet.sol",
  "compiler": {
    "name": "solc",
    "version": "0.8.15+commit.e14f2714.Emscripten.clang"
  },
  "schemaVersion": "3.4.1",
  "updatedAt": "2022-11-06T07:29:50.507Z",
  "devdoc": {
    "kind": "dev",
    "methods": {
      "owner()": {
        "details": "Returns the address of the current owner."
      },
      "renounceOwnership()": {
        "details": "Leaves the contract without owner. It will not be possible to call `onlyOwner` functions anymore. Can only be called by the current owner. NOTE: Renouncing ownership will leave the contract without an owner, thereby removing any functionality that is only available to the owner."
      },
      "transferOwnership(address)": {
        "details": "Transfers ownership of the contract to a new account (`newOwner`). Can only be called by the current owner."
      }
    },
    "version": 1
  },
  "userdoc": {
    "kind": "user",
    "methods": {},
    "version": 1
  }
}